{
  "_format": "hh-sol-artifact-1",
  "contractName": "MasterMind",
  "sourceName": "contracts/MasterMind.sol",
  "abi": [
    {
      "inputs": [
        {
          "internalType": "contract SwapzToken",
          "name": "_swapz",
          "type": "address"
        },
        {
          "internalType": "address",
          "name": "_devaddr",
          "type": "address"
        },
        {
          "internalType": "uint256",
          "name": "_swapzPerBlock",
          "type": "uint256"
        },
        {
          "internalType": "uint256",
          "name": "_startBlock",
          "type": "uint256"
        },
        {
          "internalType": "uint256",
          "name": "_bonusEndBlock",
          "type": "uint256"
        }
      ],
      "stateMutability": "nonpayable",
      "type": "constructor"
    },
    {
      "anonymous": false,
      "inputs": [
        {
          "indexed": true,
          "internalType": "address",
          "name": "user",
          "type": "address"
        },
        {
          "indexed": true,
          "internalType": "uint256",
          "name": "pid",
          "type": "uint256"
        },
        {
          "indexed": false,
          "internalType": "uint256",
          "name": "amount",
          "type": "uint256"
        }
      ],
      "name": "Deposit",
      "type": "event"
    },
    {
      "anonymous": false,
      "inputs": [
        {
          "indexed": true,
          "internalType": "address",
          "name": "user",
          "type": "address"
        },
        {
          "indexed": true,
          "internalType": "uint256",
          "name": "pid",
          "type": "uint256"
        },
        {
          "indexed": false,
          "internalType": "uint256",
          "name": "amount",
          "type": "uint256"
        }
      ],
      "name": "EmergencyWithdraw",
      "type": "event"
    },
    {
      "anonymous": false,
      "inputs": [
        {
          "indexed": true,
          "internalType": "address",
          "name": "previousOwner",
          "type": "address"
        },
        {
          "indexed": true,
          "internalType": "address",
          "name": "newOwner",
          "type": "address"
        }
      ],
      "name": "OwnershipTransferred",
      "type": "event"
    },
    {
      "anonymous": false,
      "inputs": [
        {
          "indexed": true,
          "internalType": "address",
          "name": "user",
          "type": "address"
        },
        {
          "indexed": true,
          "internalType": "uint256",
          "name": "pid",
          "type": "uint256"
        },
        {
          "indexed": false,
          "internalType": "uint256",
          "name": "amount",
          "type": "uint256"
        }
      ],
      "name": "Withdraw",
      "type": "event"
    },
    {
      "inputs": [],
      "name": "BONUS_MULTIPLIER",
      "outputs": [
        {
          "internalType": "uint256",
          "name": "",
          "type": "uint256"
        }
      ],
      "stateMutability": "view",
      "type": "function"
    },
    {
      "inputs": [
        {
          "internalType": "uint256",
          "name": "_allocPoint",
          "type": "uint256"
        },
        {
          "internalType": "contract IERC20",
          "name": "_lpToken",
          "type": "address"
        },
        {
          "internalType": "bool",
          "name": "_withUpdate",
          "type": "bool"
        }
      ],
      "name": "add",
      "outputs": [],
      "stateMutability": "nonpayable",
      "type": "function"
    },
    {
      "inputs": [],
      "name": "bonusEndBlock",
      "outputs": [
        {
          "internalType": "uint256",
          "name": "",
          "type": "uint256"
        }
      ],
      "stateMutability": "view",
      "type": "function"
    },
    {
      "inputs": [
        {
          "internalType": "uint256",
          "name": "_pid",
          "type": "uint256"
        },
        {
          "internalType": "uint256",
          "name": "_amount",
          "type": "uint256"
        }
      ],
      "name": "deposit",
      "outputs": [],
      "stateMutability": "nonpayable",
      "type": "function"
    },
    {
      "inputs": [
        {
          "internalType": "address",
          "name": "_devaddr",
          "type": "address"
        }
      ],
      "name": "dev",
      "outputs": [],
      "stateMutability": "nonpayable",
      "type": "function"
    },
    {
      "inputs": [],
      "name": "devaddr",
      "outputs": [
        {
          "internalType": "address",
          "name": "",
          "type": "address"
        }
      ],
      "stateMutability": "view",
      "type": "function"
    },
    {
      "inputs": [
        {
          "internalType": "uint256",
          "name": "_pid",
          "type": "uint256"
        }
      ],
      "name": "emergencyWithdraw",
      "outputs": [],
      "stateMutability": "nonpayable",
      "type": "function"
    },
    {
      "inputs": [
        {
          "internalType": "uint256",
          "name": "_from",
          "type": "uint256"
        },
        {
          "internalType": "uint256",
          "name": "_to",
          "type": "uint256"
        }
      ],
      "name": "getMultiplier",
      "outputs": [
        {
          "internalType": "uint256",
          "name": "",
          "type": "uint256"
        }
      ],
      "stateMutability": "view",
      "type": "function"
    },
    {
      "inputs": [],
      "name": "massUpdatePools",
      "outputs": [],
      "stateMutability": "nonpayable",
      "type": "function"
    },
    {
      "inputs": [],
      "name": "owner",
      "outputs": [
        {
          "internalType": "address",
          "name": "",
          "type": "address"
        }
      ],
      "stateMutability": "view",
      "type": "function"
    },
    {
      "inputs": [
        {
          "internalType": "uint256",
          "name": "_pid",
          "type": "uint256"
        },
        {
          "internalType": "address",
          "name": "_user",
          "type": "address"
        }
      ],
      "name": "pendingSwapz",
      "outputs": [
        {
          "internalType": "uint256",
          "name": "",
          "type": "uint256"
        }
      ],
      "stateMutability": "view",
      "type": "function"
    },
    {
      "inputs": [
        {
          "internalType": "uint256",
          "name": "",
          "type": "uint256"
        }
      ],
      "name": "poolInfo",
      "outputs": [
        {
          "internalType": "contract IERC20",
          "name": "lpToken",
          "type": "address"
        },
        {
          "internalType": "uint256",
          "name": "allocPoint",
          "type": "uint256"
        },
        {
          "internalType": "uint256",
          "name": "lastRewardBlock",
          "type": "uint256"
        },
        {
          "internalType": "uint256",
          "name": "accSwapzPerShare",
          "type": "uint256"
        }
      ],
      "stateMutability": "view",
      "type": "function"
    },
    {
      "inputs": [],
      "name": "poolLength",
      "outputs": [
        {
          "internalType": "uint256",
          "name": "",
          "type": "uint256"
        }
      ],
      "stateMutability": "view",
      "type": "function"
    },
    {
      "inputs": [],
      "name": "renounceOwnership",
      "outputs": [],
      "stateMutability": "nonpayable",
      "type": "function"
    },
    {
      "inputs": [
        {
          "internalType": "uint256",
          "name": "_pid",
          "type": "uint256"
        },
        {
          "internalType": "uint256",
          "name": "_allocPoint",
          "type": "uint256"
        },
        {
          "internalType": "bool",
          "name": "_withUpdate",
          "type": "bool"
        }
      ],
      "name": "set",
      "outputs": [],
      "stateMutability": "nonpayable",
      "type": "function"
    },
    {
      "inputs": [
        {
          "internalType": "uint256",
          "name": "_swapzPerBlock",
          "type": "uint256"
        }
      ],
      "name": "setSwapzPerBlock",
      "outputs": [],
      "stateMutability": "nonpayable",
      "type": "function"
    },
    {
      "inputs": [],
      "name": "startBlock",
      "outputs": [
        {
          "internalType": "uint256",
          "name": "",
          "type": "uint256"
        }
      ],
      "stateMutability": "view",
      "type": "function"
    },
    {
      "inputs": [],
      "name": "swapz",
      "outputs": [
        {
          "internalType": "contract SwapzToken",
          "name": "",
          "type": "address"
        }
      ],
      "stateMutability": "view",
      "type": "function"
    },
    {
      "inputs": [],
      "name": "swapzPerBlock",
      "outputs": [
        {
          "internalType": "uint256",
          "name": "",
          "type": "uint256"
        }
      ],
      "stateMutability": "view",
      "type": "function"
    },
    {
      "inputs": [],
      "name": "totalAllocPoint",
      "outputs": [
        {
          "internalType": "uint256",
          "name": "",
          "type": "uint256"
        }
      ],
      "stateMutability": "view",
      "type": "function"
    },
    {
      "inputs": [
        {
          "internalType": "address",
          "name": "newOwner",
          "type": "address"
        }
      ],
      "name": "transferOwnership",
      "outputs": [],
      "stateMutability": "nonpayable",
      "type": "function"
    },
    {
      "inputs": [
        {
          "internalType": "uint256",
          "name": "_pid",
          "type": "uint256"
        }
      ],
      "name": "updatePool",
      "outputs": [],
      "stateMutability": "nonpayable",
      "type": "function"
    },
    {
      "inputs": [
        {
          "internalType": "uint256",
          "name": "",
          "type": "uint256"
        },
        {
          "internalType": "address",
          "name": "",
          "type": "address"
        }
      ],
      "name": "userInfo",
      "outputs": [
        {
          "internalType": "uint256",
          "name": "amount",
          "type": "uint256"
        },
        {
          "internalType": "uint256",
          "name": "rewardDebt",
          "type": "uint256"
        }
      ],
      "stateMutability": "view",
      "type": "function"
    },
    {
      "inputs": [
        {
          "internalType": "uint256",
          "name": "_pid",
          "type": "uint256"
        },
        {
          "internalType": "uint256",
          "name": "_amount",
          "type": "uint256"
        }
      ],
      "name": "withdraw",
      "outputs": [],
      "stateMutability": "nonpayable",
      "type": "function"
    }
  ],
  "bytecode": "0x6080604052600060075534801561001557600080fd5b50604051611928380380611928833981810160405260a081101561003857600080fd5b5080516020820151604083015160608401516080909401519293919290919060006100616100e9565b600080546001600160a01b0319166001600160a01b0383169081178255604051929350917f8be0079c531659141344cd1fd0a4f28419497f9722a3daafe3b4186f6b6457e0908290a350600180546001600160a01b039687166001600160a01b03199182161790915560028054959096169416939093179093556004556003556008556100ed565b3390565b61182c806100fc6000396000f3fe608060405234801561001057600080fd5b50600436106101585760003560e01c8063630b5ba1116100c35780638dbb1e3a1161007c5780638dbb1e3a1461033857806393dd0b361461035b57806393f1a40b14610378578063d49e77cd146103bd578063e2bbb158146103c5578063f2fde38b146103e857610158565b8063630b5ba1146102c757806364482f79146102cf578063715018a6146102fa5780638aa28550146103025780638d88a90e1461030a5780638da5cb5b1461033057610158565b8063289c93d111610115578063289c93d114610236578063441a3e701461025a57806348cd4cb11461027d57806351eb05a6146102855780635312ea8e146102a2578063620662b1146102bf57610158565b8063081e3eda1461015d5780631526fe271461017757806317caf6f1146101c45780631aed6553146101cc5780631e6708e4146101d45780631eaaa04514610200575b600080fd5b61016561040e565b60408051918252519081900360200190f35b6101946004803603602081101561018d57600080fd5b5035610414565b604080516001600160a01b0390951685526020850193909352838301919091526060830152519081900360800190f35b610165610455565b61016561045b565b610165600480360360408110156101ea57600080fd5b50803590602001356001600160a01b0316610461565b6102346004803603606081101561021657600080fd5b508035906001600160a01b03602082013516906040013515156105d7565b005b61023e61075c565b604080516001600160a01b039092168252519081900360200190f35b6102346004803603604081101561027057600080fd5b508035906020013561076b565b6101656108b2565b6102346004803603602081101561029b57600080fd5b50356108b8565b610234600480360360208110156102b857600080fd5b5035610ad9565b610165610b74565b610234610b7a565b610234600480360360608110156102e557600080fd5b50803590602081013590604001351515610b9d565b610234610c78565b610165610d24565b6102346004803603602081101561032057600080fd5b50356001600160a01b0316610d29565b61023e610d96565b6101656004803603604081101561034e57600080fd5b5080359060200135610da5565b6102346004803603602081101561037157600080fd5b5035610e0b565b6103a46004803603604081101561038e57600080fd5b50803590602001356001600160a01b0316610e72565b6040805192835260208301919091528051918290030190f35b61023e610e96565b610234600480360360408110156103db57600080fd5b5080359060200135610ea5565b610234600480360360208110156103fe57600080fd5b50356001600160a01b0316610faa565b60055490565b6005818154811061042157fe5b600091825260209091206004909102018054600182015460028301546003909301546001600160a01b039092169350919084565b60075481565b60035481565b6000806005848154811061047157fe5b600091825260208083208784526006825260408085206001600160a01b03898116875290845281862060049586029093016003810154815484516370a0823160e01b81523098810198909852935191985093969395939492909116926370a08231926024808301939192829003018186803b1580156104ef57600080fd5b505afa158015610503573d6000803e3d6000fd5b505050506040513d602081101561051957600080fd5b505160028501549091504311801561053057508015155b1561059c576000610545856002015443610da5565b90506000610578600754610572886001015461056c600454876110ac90919063ffffffff16565b906110ac565b9061110c565b9050610597610590846105728464e8d4a510006110ac565b8590611173565b935050505b6105ca83600101546105c464e8d4a510006105728688600001546110ac90919063ffffffff16565b906111cd565b9450505050505b92915050565b6105df61122a565b6001600160a01b03166105f0610d96565b6001600160a01b031614610639576040805162461bcd60e51b815260206004820181905260248201526000805160206117ad833981519152604482015290519081900360640190fd5b801561064757610647610b7a565b6000600854431161065a5760085461065c565b435b60075490915061066c9085611173565b600755604080516080810182526001600160a01b0394851681526020810195865290810191825260006060820181815260058054600181018255925291517f036b6384b5eca791c62761152d0c79bb0604c104a5fb6f4eb0703f3154bb3db0600490920291820180546001600160a01b031916919096161790945593517f036b6384b5eca791c62761152d0c79bb0604c104a5fb6f4eb0703f3154bb3db1840155517f036b6384b5eca791c62761152d0c79bb0604c104a5fb6f4eb0703f3154bb3db28301555090517f036b6384b5eca791c62761152d0c79bb0604c104a5fb6f4eb0703f3154bb3db390910155565b6001546001600160a01b031681565b60006005838154811061077a57fe5b6000918252602080832086845260068252604080852033865290925292208054600490920290920192508311156107ed576040805162461bcd60e51b81526020600482015260126024820152711dda5d1a191c985dce881b9bdd0819dbdbd960721b604482015290519081900360640190fd5b6107f6846108b8565b600061082482600101546105c464e8d4a51000610572876003015487600001546110ac90919063ffffffff16565b9050610830338261122e565b815461083c90856111cd565b80835560038401546108599164e8d4a510009161057291906110ac565b60018301558254610874906001600160a01b031633866113bf565b604080518581529051869133917ff279e6a1f5e320cca91135676d9cb6e44ca8a08c0b88342bcdb1144f6511b5689181900360200190a35050505050565b60085481565b6000600582815481106108c757fe5b90600052602060002090600402019050806002015443116108e85750610ad6565b8054604080516370a0823160e01b815230600482015290516000926001600160a01b0316916370a08231916024808301926020929190829003018186803b15801561093257600080fd5b505afa158015610946573d6000803e3d6000fd5b505050506040513d602081101561095c57600080fd5b5051905080610972575043600290910155610ad6565b6000610982836002015443610da5565b905060006109a9600754610572866001015461056c600454876110ac90919063ffffffff16565b6001546002549192506001600160a01b03908116916340c10f1991166109d084600a61110c565b6040518363ffffffff1660e01b815260040180836001600160a01b0316815260200182815260200192505050600060405180830381600087803b158015610a1657600080fd5b505af1158015610a2a573d6000803e3d6000fd5b5050600154604080516340c10f1960e01b81523060048201526024810186905290516001600160a01b0390921693506340c10f19925060448082019260009290919082900301818387803b158015610a8157600080fd5b505af1158015610a95573d6000803e3d6000fd5b50505050610ac3610ab88461057264e8d4a51000856110ac90919063ffffffff16565b600386015490611173565b6003850155505043600290920191909155505b50565b600060058281548110610ae857fe5b60009182526020808320858452600682526040808520338087529352909320805460049093029093018054909450610b2d926001600160a01b039190911691906113bf565b80546040805191825251849133917fbb757047c2b5f3974fe26b7c10f732e7bce710b0952a71082702781e62ae05959181900360200190a360008082556001909101555050565b60045481565b60055460005b81811015610b9957610b91816108b8565b600101610b80565b5050565b610ba561122a565b6001600160a01b0316610bb6610d96565b6001600160a01b031614610bff576040805162461bcd60e51b815260206004820181905260248201526000805160206117ad833981519152604482015290519081900360640190fd5b8015610c0d57610c0d610b7a565b610c4a82610c4460058681548110610c2157fe5b9060005260206000209060040201600101546007546111cd90919063ffffffff16565b90611173565b6007819055508160058481548110610c5e57fe5b906000526020600020906004020160010181905550505050565b610c8061122a565b6001600160a01b0316610c91610d96565b6001600160a01b031614610cda576040805162461bcd60e51b815260206004820181905260248201526000805160206117ad833981519152604482015290519081900360640190fd5b600080546040516001600160a01b03909116907f8be0079c531659141344cd1fd0a4f28419497f9722a3daafe3b4186f6b6457e0908390a3600080546001600160a01b0319169055565b600a81565b6002546001600160a01b03163314610d74576040805162461bcd60e51b81526020600482015260096024820152686465763a207775743f60b81b604482015290519081900360640190fd5b600280546001600160a01b0319166001600160a01b0392909216919091179055565b6000546001600160a01b031690565b60006003548211610dc657610dbf600a61056c84866111cd565b90506105d1565b6003548310610dd957610dbf82846111cd565b610dbf610df1600354846111cd90919063ffffffff16565b610c44600a61056c876003546111cd90919063ffffffff16565b610e1361122a565b6001600160a01b0316610e24610d96565b6001600160a01b031614610e6d576040805162461bcd60e51b815260206004820181905260248201526000805160206117ad833981519152604482015290519081900360640190fd5b600455565b60066020908152600092835260408084209091529082529020805460019091015482565b6002546001600160a01b031681565b600060058381548110610eb457fe5b60009182526020808320868452600682526040808520338652909252922060049091029091019150610ee5846108b8565b805415610f28576000610f1a82600101546105c464e8d4a51000610572876003015487600001546110ac90919063ffffffff16565b9050610f26338261122e565b505b8154610f3f906001600160a01b0316333086611411565b8054610f4b9084611173565b8082556003830154610f689164e8d4a510009161057291906110ac565b6001820155604080518481529051859133917f90890809c654f11d6e72a28fa60149770a0d11ec6c92319d6ceb2bb0a4ea1a159181900360200190a350505050565b610fb261122a565b6001600160a01b0316610fc3610d96565b6001600160a01b03161461100c576040805162461bcd60e51b815260206004820181905260248201526000805160206117ad833981519152604482015290519081900360640190fd5b6001600160a01b0381166110515760405162461bcd60e51b81526004018080602001828103825260268152602001806117406026913960400191505060405180910390fd5b600080546040516001600160a01b03808516939216917f8be0079c531659141344cd1fd0a4f28419497f9722a3daafe3b4186f6b6457e091a3600080546001600160a01b0319166001600160a01b0392909216919091179055565b6000826110bb575060006105d1565b828202828482816110c857fe5b04146111055760405162461bcd60e51b815260040180806020018281038252602181526020018061178c6021913960400191505060405180910390fd5b9392505050565b6000808211611162576040805162461bcd60e51b815260206004820152601a60248201527f536166654d6174683a206469766973696f6e206279207a65726f000000000000604482015290519081900360640190fd5b81838161116b57fe5b049392505050565b600082820183811015611105576040805162461bcd60e51b815260206004820152601b60248201527f536166654d6174683a206164646974696f6e206f766572666c6f770000000000604482015290519081900360640190fd5b600082821115611224576040805162461bcd60e51b815260206004820152601e60248201527f536166654d6174683a207375627472616374696f6e206f766572666c6f770000604482015290519081900360640190fd5b50900390565b3390565b600154604080516370a0823160e01b815230600482015290516000926001600160a01b0316916370a08231916024808301926020929190829003018186803b15801561127957600080fd5b505afa15801561128d573d6000803e3d6000fd5b505050506040513d60208110156112a357600080fd5b5051905080821115611337576001546040805163a9059cbb60e01b81526001600160a01b038681166004830152602482018590529151919092169163a9059cbb9160448083019260209291908290030181600087803b15801561130557600080fd5b505af1158015611319573d6000803e3d6000fd5b505050506040513d602081101561132f57600080fd5b506113ba9050565b6001546040805163a9059cbb60e01b81526001600160a01b038681166004830152602482018690529151919092169163a9059cbb9160448083019260209291908290030181600087803b15801561138d57600080fd5b505af11580156113a1573d6000803e3d6000fd5b505050506040513d60208110156113b757600080fd5b50505b505050565b604080516001600160a01b038416602482015260448082018490528251808303909101815260649091019091526020810180516001600160e01b031663a9059cbb60e01b1790526113ba908490611471565b604080516001600160a01b0380861660248301528416604482015260648082018490528251808303909101815260849091019091526020810180516001600160e01b03166323b872dd60e01b17905261146b908590611471565b50505050565b60606114c6826040518060400160405280602081526020017f5361666545524332303a206c6f772d6c6576656c2063616c6c206661696c6564815250856001600160a01b03166115229092919063ffffffff16565b8051909150156113ba578080602001905160208110156114e557600080fd5b50516113ba5760405162461bcd60e51b815260040180806020018281038252602a8152602001806117cd602a913960400191505060405180910390fd5b60606115318484600085611539565b949350505050565b60608247101561157a5760405162461bcd60e51b81526004018080602001828103825260268152602001806117666026913960400191505060405180910390fd5b61158385611695565b6115d4576040805162461bcd60e51b815260206004820152601d60248201527f416464726573733a2063616c6c20746f206e6f6e2d636f6e7472616374000000604482015290519081900360640190fd5b60006060866001600160a01b031685876040518082805190602001908083835b602083106116135780518252601f1990920191602091820191016115f4565b6001836020036101000a03801982511681845116808217855250505050505090500191505060006040518083038185875af1925050503d8060008114611675576040519150601f19603f3d011682016040523d82523d6000602084013e61167a565b606091505b509150915061168a82828661169b565b979650505050505050565b3b151590565b606083156116aa575081611105565b8251156116ba5782518084602001fd5b8160405162461bcd60e51b81526004018080602001828103825283818151815260200191508051906020019080838360005b838110156117045781810151838201526020016116ec565b50505050905090810190601f1680156117315780820380516001836020036101000a031916815260200191505b509250505060405180910390fdfe4f776e61626c653a206e6577206f776e657220697320746865207a65726f2061646472657373416464726573733a20696e73756666696369656e742062616c616e636520666f722063616c6c536166654d6174683a206d756c7469706c69636174696f6e206f766572666c6f774f776e61626c653a2063616c6c6572206973206e6f7420746865206f776e65725361666545524332303a204552433230206f7065726174696f6e20646964206e6f742073756363656564a26469706673582212209ff22faae9bd8583a255c687880052cc8a6cddfab40de88027f29b0939810e5164736f6c634300060c0033",
  "linkReferences": {},
  "deployedLinkReferences": {}
}