{
  "_format": "hh-sol-artifact-1",
  "contractName": "MetaSwap",
  "sourceName": "contracts/metaswap/MetaSwap.sol",
  "abi": [
    {
      "anonymous": false,
      "inputs": [
        {
          "indexed": true,
          "internalType": "address",
          "name": "provider",
          "type": "address"
        },
        {
          "indexed": false,
          "internalType": "uint256[]",
          "name": "tokenAmounts",
          "type": "uint256[]"
        },
        {
          "indexed": false,
          "internalType": "uint256[]",
          "name": "fees",
          "type": "uint256[]"
        },
        {
          "indexed": false,
          "internalType": "uint256",
          "name": "invariant",
          "type": "uint256"
        },
        {
          "indexed": false,
          "internalType": "uint256",
          "name": "lpTokenSupply",
          "type": "uint256"
        }
      ],
      "name": "AddLiquidity",
      "type": "event"
    },
    {
      "anonymous": false,
      "inputs": [
        {
          "indexed": false,
          "internalType": "uint256",
          "name": "newAdminFee",
          "type": "uint256"
        }
      ],
      "name": "NewAdminFee",
      "type": "event"
    },
    {
      "anonymous": false,
      "inputs": [
        {
          "indexed": false,
          "internalType": "uint256",
          "name": "newDepositFee",
          "type": "uint256"
        }
      ],
      "name": "NewDepositFee",
      "type": "event"
    },
    {
      "anonymous": false,
      "inputs": [
        {
          "indexed": false,
          "internalType": "uint256",
          "name": "newSwapFee",
          "type": "uint256"
        }
      ],
      "name": "NewSwapFee",
      "type": "event"
    },
    {
      "anonymous": false,
      "inputs": [
        {
          "indexed": false,
          "internalType": "uint256",
          "name": "newWithdrawFee",
          "type": "uint256"
        }
      ],
      "name": "NewWithdrawFee",
      "type": "event"
    },
    {
      "anonymous": false,
      "inputs": [
        {
          "indexed": true,
          "internalType": "address",
          "name": "previousOwner",
          "type": "address"
        },
        {
          "indexed": true,
          "internalType": "address",
          "name": "newOwner",
          "type": "address"
        }
      ],
      "name": "OwnershipTransferred",
      "type": "event"
    },
    {
      "anonymous": false,
      "inputs": [
        {
          "indexed": false,
          "internalType": "address",
          "name": "account",
          "type": "address"
        }
      ],
      "name": "Paused",
      "type": "event"
    },
    {
      "anonymous": false,
      "inputs": [
        {
          "indexed": false,
          "internalType": "uint256",
          "name": "oldA",
          "type": "uint256"
        },
        {
          "indexed": false,
          "internalType": "uint256",
          "name": "newA",
          "type": "uint256"
        },
        {
          "indexed": false,
          "internalType": "uint256",
          "name": "initialTime",
          "type": "uint256"
        },
        {
          "indexed": false,
          "internalType": "uint256",
          "name": "futureTime",
          "type": "uint256"
        }
      ],
      "name": "RampA",
      "type": "event"
    },
    {
      "anonymous": false,
      "inputs": [
        {
          "indexed": true,
          "internalType": "address",
          "name": "provider",
          "type": "address"
        },
        {
          "indexed": false,
          "internalType": "uint256[]",
          "name": "tokenAmounts",
          "type": "uint256[]"
        },
        {
          "indexed": false,
          "internalType": "uint256",
          "name": "lpTokenSupply",
          "type": "uint256"
        }
      ],
      "name": "RemoveLiquidity",
      "type": "event"
    },
    {
      "anonymous": false,
      "inputs": [
        {
          "indexed": true,
          "internalType": "address",
          "name": "provider",
          "type": "address"
        },
        {
          "indexed": false,
          "internalType": "uint256[]",
          "name": "tokenAmounts",
          "type": "uint256[]"
        },
        {
          "indexed": false,
          "internalType": "uint256[]",
          "name": "fees",
          "type": "uint256[]"
        },
        {
          "indexed": false,
          "internalType": "uint256",
          "name": "invariant",
          "type": "uint256"
        },
        {
          "indexed": false,
          "internalType": "uint256",
          "name": "lpTokenSupply",
          "type": "uint256"
        }
      ],
      "name": "RemoveLiquidityImbalance",
      "type": "event"
    },
    {
      "anonymous": false,
      "inputs": [
        {
          "indexed": true,
          "internalType": "address",
          "name": "provider",
          "type": "address"
        },
        {
          "indexed": false,
          "internalType": "uint256",
          "name": "lpTokenAmount",
          "type": "uint256"
        },
        {
          "indexed": false,
          "internalType": "uint256",
          "name": "lpTokenSupply",
          "type": "uint256"
        },
        {
          "indexed": false,
          "internalType": "uint256",
          "name": "boughtId",
          "type": "uint256"
        },
        {
          "indexed": false,
          "internalType": "uint256",
          "name": "tokensBought",
          "type": "uint256"
        }
      ],
      "name": "RemoveLiquidityOne",
      "type": "event"
    },
    {
      "anonymous": false,
      "inputs": [
        {
          "indexed": false,
          "internalType": "uint256",
          "name": "currentA",
          "type": "uint256"
        },
        {
          "indexed": false,
          "internalType": "uint256",
          "name": "time",
          "type": "uint256"
        }
      ],
      "name": "StopRampA",
      "type": "event"
    },
    {
      "anonymous": false,
      "inputs": [
        {
          "indexed": true,
          "internalType": "address",
          "name": "buyer",
          "type": "address"
        },
        {
          "indexed": false,
          "internalType": "uint256",
          "name": "tokensSold",
          "type": "uint256"
        },
        {
          "indexed": false,
          "internalType": "uint256",
          "name": "tokensBought",
          "type": "uint256"
        },
        {
          "indexed": false,
          "internalType": "uint128",
          "name": "soldId",
          "type": "uint128"
        },
        {
          "indexed": false,
          "internalType": "uint128",
          "name": "boughtId",
          "type": "uint128"
        }
      ],
      "name": "TokenSwap",
      "type": "event"
    },
    {
      "anonymous": false,
      "inputs": [
        {
          "indexed": true,
          "internalType": "address",
          "name": "buyer",
          "type": "address"
        },
        {
          "indexed": false,
          "internalType": "uint256",
          "name": "tokensSold",
          "type": "uint256"
        },
        {
          "indexed": false,
          "internalType": "uint256",
          "name": "tokensBought",
          "type": "uint256"
        },
        {
          "indexed": false,
          "internalType": "uint128",
          "name": "soldId",
          "type": "uint128"
        },
        {
          "indexed": false,
          "internalType": "uint128",
          "name": "boughtId",
          "type": "uint128"
        }
      ],
      "name": "TokenSwapUnderlying",
      "type": "event"
    },
    {
      "anonymous": false,
      "inputs": [
        {
          "indexed": false,
          "internalType": "address",
          "name": "account",
          "type": "address"
        }
      ],
      "name": "Unpaused",
      "type": "event"
    },
    {
      "inputs": [
        {
          "internalType": "uint256[]",
          "name": "amounts",
          "type": "uint256[]"
        },
        {
          "internalType": "uint256",
          "name": "minToMint",
          "type": "uint256"
        },
        {
          "internalType": "uint256",
          "name": "deadline",
          "type": "uint256"
        }
      ],
      "name": "addLiquidity",
      "outputs": [
        {
          "internalType": "uint256",
          "name": "",
          "type": "uint256"
        }
      ],
      "stateMutability": "nonpayable",
      "type": "function"
    },
    {
      "inputs": [
        {
          "internalType": "address",
          "name": "user",
          "type": "address"
        }
      ],
      "name": "calculateCurrentWithdrawFee",
      "outputs": [
        {
          "internalType": "uint256",
          "name": "",
          "type": "uint256"
        }
      ],
      "stateMutability": "view",
      "type": "function"
    },
    {
      "inputs": [
        {
          "internalType": "address",
          "name": "account",
          "type": "address"
        },
        {
          "internalType": "uint256",
          "name": "amount",
          "type": "uint256"
        }
      ],
      "name": "calculateRemoveLiquidity",
      "outputs": [
        {
          "internalType": "uint256[]",
          "name": "",
          "type": "uint256[]"
        }
      ],
      "stateMutability": "view",
      "type": "function"
    },
    {
      "inputs": [
        {
          "internalType": "address",
          "name": "account",
          "type": "address"
        },
        {
          "internalType": "uint256",
          "name": "tokenAmount",
          "type": "uint256"
        },
        {
          "internalType": "uint8",
          "name": "tokenIndex",
          "type": "uint8"
        }
      ],
      "name": "calculateRemoveLiquidityOneToken",
      "outputs": [
        {
          "internalType": "uint256",
          "name": "",
          "type": "uint256"
        }
      ],
      "stateMutability": "view",
      "type": "function"
    },
    {
      "inputs": [
        {
          "internalType": "uint8",
          "name": "tokenIndexFrom",
          "type": "uint8"
        },
        {
          "internalType": "uint8",
          "name": "tokenIndexTo",
          "type": "uint8"
        },
        {
          "internalType": "uint256",
          "name": "dx",
          "type": "uint256"
        }
      ],
      "name": "calculateSwap",
      "outputs": [
        {
          "internalType": "uint256",
          "name": "",
          "type": "uint256"
        }
      ],
      "stateMutability": "view",
      "type": "function"
    },
    {
      "inputs": [
        {
          "internalType": "uint8",
          "name": "tokenIndexFrom",
          "type": "uint8"
        },
        {
          "internalType": "uint8",
          "name": "tokenIndexTo",
          "type": "uint8"
        },
        {
          "internalType": "uint256",
          "name": "dx",
          "type": "uint256"
        }
      ],
      "name": "calculateSwapUnderlying",
      "outputs": [
        {
          "internalType": "uint256",
          "name": "",
          "type": "uint256"
        }
      ],
      "stateMutability": "view",
      "type": "function"
    },
    {
      "inputs": [
        {
          "internalType": "address",
          "name": "account",
          "type": "address"
        },
        {
          "internalType": "uint256[]",
          "name": "amounts",
          "type": "uint256[]"
        },
        {
          "internalType": "bool",
          "name": "deposit",
          "type": "bool"
        }
      ],
      "name": "calculateTokenAmount",
      "outputs": [
        {
          "internalType": "uint256",
          "name": "",
          "type": "uint256"
        }
      ],
      "stateMutability": "view",
      "type": "function"
    },
    {
      "inputs": [],
      "name": "getA",
      "outputs": [
        {
          "internalType": "uint256",
          "name": "",
          "type": "uint256"
        }
      ],
      "stateMutability": "view",
      "type": "function"
    },
    {
      "inputs": [],
      "name": "getAPrecise",
      "outputs": [
        {
          "internalType": "uint256",
          "name": "",
          "type": "uint256"
        }
      ],
      "stateMutability": "view",
      "type": "function"
    },
    {
      "inputs": [
        {
          "internalType": "uint256",
          "name": "index",
          "type": "uint256"
        }
      ],
      "name": "getAdminBalance",
      "outputs": [
        {
          "internalType": "uint256",
          "name": "",
          "type": "uint256"
        }
      ],
      "stateMutability": "view",
      "type": "function"
    },
    {
      "inputs": [
        {
          "internalType": "address",
          "name": "user",
          "type": "address"
        }
      ],
      "name": "getDepositTimestamp",
      "outputs": [
        {
          "internalType": "uint256",
          "name": "",
          "type": "uint256"
        }
      ],
      "stateMutability": "view",
      "type": "function"
    },
    {
      "inputs": [
        {
          "internalType": "uint8",
          "name": "index",
          "type": "uint8"
        }
      ],
      "name": "getToken",
      "outputs": [
        {
          "internalType": "contract IERC20",
          "name": "",
          "type": "address"
        }
      ],
      "stateMutability": "view",
      "type": "function"
    },
    {
      "inputs": [
        {
          "internalType": "uint8",
          "name": "index",
          "type": "uint8"
        }
      ],
      "name": "getTokenBalance",
      "outputs": [
        {
          "internalType": "uint256",
          "name": "",
          "type": "uint256"
        }
      ],
      "stateMutability": "view",
      "type": "function"
    },
    {
      "inputs": [
        {
          "internalType": "address",
          "name": "tokenAddress",
          "type": "address"
        }
      ],
      "name": "getTokenIndex",
      "outputs": [
        {
          "internalType": "uint8",
          "name": "",
          "type": "uint8"
        }
      ],
      "stateMutability": "view",
      "type": "function"
    },
    {
      "inputs": [],
      "name": "getVirtualPrice",
      "outputs": [
        {
          "internalType": "uint256",
          "name": "",
          "type": "uint256"
        }
      ],
      "stateMutability": "view",
      "type": "function"
    },
    {
      "inputs": [
        {
          "internalType": "contract IERC20[]",
          "name": "_pooledTokens",
          "type": "address[]"
        },
        {
          "internalType": "uint8[]",
          "name": "decimals",
          "type": "uint8[]"
        },
        {
          "internalType": "string",
          "name": "lpTokenName",
          "type": "string"
        },
        {
          "internalType": "string",
          "name": "lpTokenSymbol",
          "type": "string"
        },
        {
          "internalType": "uint256",
          "name": "_a",
          "type": "uint256"
        },
        {
          "internalType": "uint256",
          "name": "_fee",
          "type": "uint256"
        },
        {
          "internalType": "uint256",
          "name": "_adminFee",
          "type": "uint256"
        },
        {
          "internalType": "uint256",
          "name": "_depositFee",
          "type": "uint256"
        },
        {
          "internalType": "uint256",
          "name": "_withdrawFee",
          "type": "uint256"
        },
        {
          "internalType": "address",
          "name": "_devaddr",
          "type": "address"
        }
      ],
      "name": "initialize",
      "outputs": [],
      "stateMutability": "nonpayable",
      "type": "function"
    },
    {
      "inputs": [
        {
          "internalType": "contract IERC20[]",
          "name": "_pooledTokens",
          "type": "address[]"
        },
        {
          "internalType": "uint8[]",
          "name": "decimals",
          "type": "uint8[]"
        },
        {
          "internalType": "string",
          "name": "lpTokenName",
          "type": "string"
        },
        {
          "internalType": "string",
          "name": "lpTokenSymbol",
          "type": "string"
        },
        {
          "internalType": "uint256",
          "name": "_a",
          "type": "uint256"
        },
        {
          "internalType": "uint256",
          "name": "_fee",
          "type": "uint256"
        },
        {
          "internalType": "uint256",
          "name": "_adminFee",
          "type": "uint256"
        },
        {
          "internalType": "uint256",
          "name": "_depositFee",
          "type": "uint256"
        },
        {
          "internalType": "uint256",
          "name": "_withdrawFee",
          "type": "uint256"
        },
        {
          "internalType": "address",
          "name": "_devaddr",
          "type": "address"
        },
        {
          "internalType": "contract ISwap",
          "name": "baseSwap",
          "type": "address"
        }
      ],
      "name": "metaInitialize",
      "outputs": [],
      "stateMutability": "nonpayable",
      "type": "function"
    },
    {
      "inputs": [],
      "name": "metaSwapStorage",
      "outputs": [
        {
          "internalType": "contract ISwap",
          "name": "baseSwap",
          "type": "address"
        },
        {
          "internalType": "uint256",
          "name": "baseVirtualPrice",
          "type": "uint256"
        },
        {
          "internalType": "uint256",
          "name": "baseCacheLastUpdated",
          "type": "uint256"
        }
      ],
      "stateMutability": "view",
      "type": "function"
    },
    {
      "inputs": [],
      "name": "owner",
      "outputs": [
        {
          "internalType": "address",
          "name": "",
          "type": "address"
        }
      ],
      "stateMutability": "view",
      "type": "function"
    },
    {
      "inputs": [],
      "name": "pause",
      "outputs": [],
      "stateMutability": "nonpayable",
      "type": "function"
    },
    {
      "inputs": [],
      "name": "paused",
      "outputs": [
        {
          "internalType": "bool",
          "name": "",
          "type": "bool"
        }
      ],
      "stateMutability": "view",
      "type": "function"
    },
    {
      "inputs": [
        {
          "internalType": "uint256",
          "name": "futureA",
          "type": "uint256"
        },
        {
          "internalType": "uint256",
          "name": "futureTime",
          "type": "uint256"
        }
      ],
      "name": "rampA",
      "outputs": [],
      "stateMutability": "nonpayable",
      "type": "function"
    },
    {
      "inputs": [
        {
          "internalType": "uint256",
          "name": "amount",
          "type": "uint256"
        },
        {
          "internalType": "uint256[]",
          "name": "minAmounts",
          "type": "uint256[]"
        },
        {
          "internalType": "uint256",
          "name": "deadline",
          "type": "uint256"
        }
      ],
      "name": "removeLiquidity",
      "outputs": [
        {
          "internalType": "uint256[]",
          "name": "",
          "type": "uint256[]"
        }
      ],
      "stateMutability": "nonpayable",
      "type": "function"
    },
    {
      "inputs": [
        {
          "internalType": "uint256[]",
          "name": "amounts",
          "type": "uint256[]"
        },
        {
          "internalType": "uint256",
          "name": "maxBurnAmount",
          "type": "uint256"
        },
        {
          "internalType": "uint256",
          "name": "deadline",
          "type": "uint256"
        }
      ],
      "name": "removeLiquidityImbalance",
      "outputs": [
        {
          "internalType": "uint256",
          "name": "",
          "type": "uint256"
        }
      ],
      "stateMutability": "nonpayable",
      "type": "function"
    },
    {
      "inputs": [
        {
          "internalType": "uint256",
          "name": "tokenAmount",
          "type": "uint256"
        },
        {
          "internalType": "uint8",
          "name": "tokenIndex",
          "type": "uint8"
        },
        {
          "internalType": "uint256",
          "name": "minAmount",
          "type": "uint256"
        },
        {
          "internalType": "uint256",
          "name": "deadline",
          "type": "uint256"
        }
      ],
      "name": "removeLiquidityOneToken",
      "outputs": [
        {
          "internalType": "uint256",
          "name": "",
          "type": "uint256"
        }
      ],
      "stateMutability": "nonpayable",
      "type": "function"
    },
    {
      "inputs": [],
      "name": "renounceOwnership",
      "outputs": [],
      "stateMutability": "nonpayable",
      "type": "function"
    },
    {
      "inputs": [
        {
          "internalType": "uint256",
          "name": "newAdminFee",
          "type": "uint256"
        }
      ],
      "name": "setAdminFee",
      "outputs": [],
      "stateMutability": "nonpayable",
      "type": "function"
    },
    {
      "inputs": [
        {
          "internalType": "uint256",
          "name": "newDepositFee",
          "type": "uint256"
        }
      ],
      "name": "setDefaultDepositFee",
      "outputs": [],
      "stateMutability": "nonpayable",
      "type": "function"
    },
    {
      "inputs": [
        {
          "internalType": "uint256",
          "name": "newWithdrawFee",
          "type": "uint256"
        }
      ],
      "name": "setDefaultWithdrawFee",
      "outputs": [],
      "stateMutability": "nonpayable",
      "type": "function"
    },
    {
      "inputs": [
        {
          "internalType": "address",
          "name": "_devaddr",
          "type": "address"
        }
      ],
      "name": "setDevAddress",
      "outputs": [],
      "stateMutability": "nonpayable",
      "type": "function"
    },
    {
      "inputs": [
        {
          "internalType": "uint256",
          "name": "newSwapFee",
          "type": "uint256"
        }
      ],
      "name": "setSwapFee",
      "outputs": [],
      "stateMutability": "nonpayable",
      "type": "function"
    },
    {
      "inputs": [],
      "name": "stopRampA",
      "outputs": [],
      "stateMutability": "nonpayable",
      "type": "function"
    },
    {
      "inputs": [
        {
          "internalType": "uint8",
          "name": "tokenIndexFrom",
          "type": "uint8"
        },
        {
          "internalType": "uint8",
          "name": "tokenIndexTo",
          "type": "uint8"
        },
        {
          "internalType": "uint256",
          "name": "dx",
          "type": "uint256"
        },
        {
          "internalType": "uint256",
          "name": "minDy",
          "type": "uint256"
        },
        {
          "internalType": "uint256",
          "name": "deadline",
          "type": "uint256"
        }
      ],
      "name": "swap",
      "outputs": [
        {
          "internalType": "uint256",
          "name": "",
          "type": "uint256"
        }
      ],
      "stateMutability": "nonpayable",
      "type": "function"
    },
    {
      "inputs": [],
      "name": "swapStorage",
      "outputs": [
        {
          "internalType": "uint256",
          "name": "initialA",
          "type": "uint256"
        },
        {
          "internalType": "uint256",
          "name": "futureA",
          "type": "uint256"
        },
        {
          "internalType": "uint256",
          "name": "initialATime",
          "type": "uint256"
        },
        {
          "internalType": "uint256",
          "name": "futureATime",
          "type": "uint256"
        },
        {
          "internalType": "uint256",
          "name": "swapFee",
          "type": "uint256"
        },
        {
          "internalType": "uint256",
          "name": "adminFee",
          "type": "uint256"
        },
        {
          "internalType": "uint256",
          "name": "defaultDepositFee",
          "type": "uint256"
        },
        {
          "internalType": "uint256",
          "name": "defaultWithdrawFee",
          "type": "uint256"
        },
        {
          "internalType": "address",
          "name": "devaddr",
          "type": "address"
        },
        {
          "internalType": "contract LPToken",
          "name": "lpToken",
          "type": "address"
        }
      ],
      "stateMutability": "view",
      "type": "function"
    },
    {
      "inputs": [
        {
          "internalType": "uint8",
          "name": "tokenIndexFrom",
          "type": "uint8"
        },
        {
          "internalType": "uint8",
          "name": "tokenIndexTo",
          "type": "uint8"
        },
        {
          "internalType": "uint256",
          "name": "dx",
          "type": "uint256"
        },
        {
          "internalType": "uint256",
          "name": "minDy",
          "type": "uint256"
        },
        {
          "internalType": "uint256",
          "name": "deadline",
          "type": "uint256"
        }
      ],
      "name": "swapUnderlying",
      "outputs": [
        {
          "internalType": "uint256",
          "name": "",
          "type": "uint256"
        }
      ],
      "stateMutability": "nonpayable",
      "type": "function"
    },
    {
      "inputs": [
        {
          "internalType": "address",
          "name": "newOwner",
          "type": "address"
        }
      ],
      "name": "transferOwnership",
      "outputs": [],
      "stateMutability": "nonpayable",
      "type": "function"
    },
    {
      "inputs": [],
      "name": "unpause",
      "outputs": [],
      "stateMutability": "nonpayable",
      "type": "function"
    },
    {
      "inputs": [
        {
          "internalType": "address",
          "name": "recipient",
          "type": "address"
        },
        {
          "internalType": "uint256",
          "name": "transferAmount",
          "type": "uint256"
        }
      ],
      "name": "updateUserWithdrawFee",
      "outputs": [],
      "stateMutability": "nonpayable",
      "type": "function"
    },
    {
      "inputs": [],
      "name": "withdrawAdminFees",
      "outputs": [],
      "stateMutability": "nonpayable",
      "type": "function"
    }
  ],
  "bytecode": "0x608060405260d8805460ff1916905534801561001a57600080fd5b506154a48061002a6000396000f3fe60806040523480156200001157600080fd5b5060043610620002745760003560e01c806382b866001162000159578063ac5bf26311620000c9578063da7a77be1162000087578063da7a77be1462000d6a578063e25aa5fa1462000d93578063ef0a712f1462000d9d578063f2fde38b1462000dbd578063f9273ffb1462000de65762000274565b8063ac5bf2631462000cde578063c00c125c1462000cfe578063c4db7fa01462000d2d578063d0d41fe11462000d37578063d46300fd1462000d605762000274565b80639169558611620001175780639169558614620009a657806391ceb3eb14620009e55780639422c6371462000a0857806398899f401462000c73578063a95b089f1462000cab5762000274565b806382b8660014620008b95780638456cb5914620008f857806384cdd9bc14620009025780638beb60b6146200097c5780638da5cb5b146200099c5762000274565b80634d49e87d11620001f557806366c0bd2411620001b357806366c0bd2414620007cf578063715018a6146200080e57806375d8e3e4146200081857806378e0fae8146200084b5780637c61e561146200088a5762000274565b80634d49e87d146200068b57806352ff62ec1462000705578063593d132c14620007255780635c975abb146200074b5780635fd65f0f14620007695762000274565b806331cd52b0116200024357806331cd52b0146200053657806334e1990714620006035780633e3a156014620006235780633f4ba83a14620006585780634a1b0d5714620006625762000274565b80630419b45a14620002795780630ba81959146200028557806319762b7314620002a15780632d74d4e91462000504575b600080fd5b6200028362000e6c565b005b6200028f62000f5a565b60408051918252519081900360200190f35b620002836004803603610140811015620002ba57600080fd5b810190602081018135600160201b811115620002d557600080fd5b820183602082011115620002e857600080fd5b803590602001918460208302840111600160201b831117156200030a57600080fd5b9190808060200260200160405190810160405280939291908181526020018383602002808284376000920191909152509295949360208101935035915050600160201b8111156200035a57600080fd5b8201836020820111156200036d57600080fd5b803590602001918460208302840111600160201b831117156200038f57600080fd5b9190808060200260200160405190810160405280939291908181526020018383602002808284376000920191909152509295949360208101935035915050600160201b811115620003df57600080fd5b820183602082011115620003f257600080fd5b803590602001918460018302840111600160201b831117156200041457600080fd5b91908080601f0160208091040260200160405190810160405280939291908181526020018383808284376000920191909152509295949360208101935035915050600160201b8111156200046757600080fd5b8201836020820111156200047a57600080fd5b803590602001918460018302840111600160201b831117156200049c57600080fd5b91908080601f0160208091040260200160405190810160405280939291908181526020018383808284376000920191909152509295505082359350505060208101359060408101359060608101359060808101359060a001356001600160a01b031662000fe2565b6200050e62001833565b604080516001600160a01b039094168452602084019290925282820152519081900360600190f35b620005b1600480360360608110156200054e57600080fd5b81359190810190604081016020820135600160201b8111156200057057600080fd5b8201836020820111156200058357600080fd5b803590602001918460208302840111600160201b83111715620005a557600080fd5b9193509150356200184b565b60408051602080825283518183015283519192839290830191858101910280838360005b83811015620005ef578181015183820152602001620005d5565b505050509050019250505060405180910390f35b62000283600480360360208110156200061b57600080fd5b503562001a54565b6200028f600480360360808110156200063b57600080fd5b5080359060ff602082013516906040810135906060013562001b32565b6200028362001cc9565b6200028f600480360360208110156200067a57600080fd5b50356001600160a01b031662001d3d565b6200028f60048036036060811015620006a357600080fd5b810190602081018135600160201b811115620006be57600080fd5b820183602082011115620006d157600080fd5b803590602001918460208302840111600160201b83111715620006f357600080fd5b91935091508035906020013562001dd7565b62000283600480360360208110156200071d57600080fd5b503562001f5b565b62000283600480360360408110156200073d57600080fd5b50803590602001356200201d565b6200075562002195565b604080519115158252519081900360200190f35b620007736200219e565b604080519a8b5260208b0199909952898901979097526060890195909552608088019390935260a087019190915260c086015260e08501526001600160a01b039081166101008501521661012083015251908190036101400190f35b620007f860048036036020811015620007e757600080fd5b50356001600160a01b0316620021cc565b6040805160ff9092168252519081900360200190f35b6200028362002251565b6200028f600480360360608110156200083057600080fd5b5060ff81358116916020810135909116906040013562002303565b6200028f600480360360a08110156200086357600080fd5b5060ff813581169160208101359091169060408101359060608101359060800135620023af565b620005b160048036036040811015620008a257600080fd5b506001600160a01b0381351690602001356200254d565b620008dc60048036036020811015620008d157600080fd5b503560ff1662002690565b604080516001600160a01b039092168252519081900360200190f35b6200028362002709565b6200028f600480360360608110156200091a57600080fd5b810190602081018135600160201b8111156200093557600080fd5b8201836020820111156200094857600080fd5b803590602001918460208302840111600160201b831117156200096a57600080fd5b9193509150803590602001356200277b565b62000283600480360360208110156200099457600080fd5b5035620028ff565b620008dc620029c1565b6200028f600480360360a0811015620009be57600080fd5b5060ff813581169160208101359091169060408101359060608101359060800135620029d0565b6200028f60048036036020811015620009fd57600080fd5b503560ff1662002b32565b62000283600480360361016081101562000a2157600080fd5b810190602081018135600160201b81111562000a3c57600080fd5b82018360208201111562000a4f57600080fd5b803590602001918460208302840111600160201b8311171562000a7157600080fd5b9190808060200260200160405190810160405280939291908181526020018383602002808284376000920191909152509295949360208101935035915050600160201b81111562000ac157600080fd5b82018360208201111562000ad457600080fd5b803590602001918460208302840111600160201b8311171562000af657600080fd5b9190808060200260200160405190810160405280939291908181526020018383602002808284376000920191909152509295949360208101935035915050600160201b81111562000b4657600080fd5b82018360208201111562000b5957600080fd5b803590602001918460018302840111600160201b8311171562000b7b57600080fd5b91908080601f0160208091040260200160405190810160405280939291908181526020018383808284376000920191909152509295949360208101935035915050600160201b81111562000bce57600080fd5b82018360208201111562000be157600080fd5b803590602001918460018302840111600160201b8311171562000c0357600080fd5b91908080601f016020809104026020016040519081016040528093929190818152602001838380828437600092019190915250929550508235935050506020810135906040810135906060810135906080810135906001600160a01b0360a082013581169160c001351662002ba8565b6200028f6004803603606081101562000c8b57600080fd5b5080356001600160a01b0316906020810135906040013560ff1662002f08565b6200028f6004803603606081101562000cc357600080fd5b5060ff81358116916020810135909116906040013562002f85565b620002836004803603602081101562000cf657600080fd5b503562002ffb565b620002836004803603604081101562000d1657600080fd5b506001600160a01b038135169060200135620030bd565b6200028362003186565b620002836004803603602081101562000d4f57600080fd5b50356001600160a01b0316620032d3565b6200028f6200339d565b6200028f6004803603602081101562000d8257600080fd5b50356001600160a01b0316620033f2565b6200028f62003458565b6200028f6004803603602081101562000db557600080fd5b5035620034b6565b620002836004803603602081101562000dd557600080fd5b50356001600160a01b031662003513565b6200028f6004803603606081101562000dfe57600080fd5b6001600160a01b038235169190810190604081016020820135600160201b81111562000e2957600080fd5b82018360208201111562000e3c57600080fd5b803590602001918460208302840111600160201b8311171562000e5e57600080fd5b91935091503515156200361e565b62000e7662003705565b6001600160a01b031662000e89620029c1565b6001600160a01b03161462000ed4576040805162461bcd60e51b815260206004820181905260248201526000805160206200544f833981519152604482015290519081900360640190fd5b73__$a4e4384d4f8ec13c7a898ae597a4175ef6$__6324c5c75160c962000efa620029c1565b6040518363ffffffff1660e01b815260040180838152602001826001600160a01b031681526020019250505060006040518083038186803b15801562000f3f57600080fd5b505af415801562000f54573d6000803e3d6000fd5b50505050565b600060c973__$a4e4384d4f8ec13c7a898ae597a4175ef6$__63c9b64dcb90916040518263ffffffff1660e01b81526004018082815260200191505060206040518083038186803b15801562000faf57600080fd5b505af415801562000fc4573d6000803e3d6000fd5b505050506040513d602081101562000fdb57600080fd5b5051905090565b600054610100900460ff168062000ffe575062000ffe62003709565b806200100d575060005460ff16155b6200104a5760405162461bcd60e51b815260040180806020018281038252602e81526020018062005400602e913960400191505060405180910390fd5b600054610100900460ff1615801562001076576000805460ff1961ff0019909116610100171660011790555b620010806200371c565b6200108a620037e4565b60018b5111620010e1576040805162461bcd60e51b815260206004820152601960248201527f5f706f6f6c6564546f6b656e732e6c656e677468203c3d203100000000000000604482015290519081900360640190fd5b60208b51111562001139576040805162461bcd60e51b815260206004820152601960248201527f5f706f6f6c6564546f6b656e732e6c656e677468203e20333200000000000000604482015290519081900360640190fd5b89518b511462001190576040805162461bcd60e51b815260206004820152601f60248201527f5f706f6f6c6564546f6b656e7320646563696d616c73206d69736d6174636800604482015290519081900360640190fd5b60608a5167ffffffffffffffff81118015620011ab57600080fd5b50604051908082528060200260200182016040528015620011d6578160200160208202803683370190505b50905060005b8c518160ff161015620014585760ff811615620012bf5760d960008e8360ff16815181106200120757fe5b6020908102919091018101516001600160a01b031682528101919091526040016000205460ff161580156200127a57508c8160ff16815181106200124757fe5b60200260200101516001600160a01b03168d6000815181106200126657fe5b60200260200101516001600160a01b031614155b620012bf576040805162461bcd60e51b815260206004820152601060248201526f4475706c696361746520746f6b656e7360801b604482015290519081900360640190fd5b60006001600160a01b03168d8260ff1681518110620012da57fe5b60200260200101516001600160a01b031614156200133f576040805162461bcd60e51b815260206004820152601d60248201527f546865203020616464726573732069736e277420616e204552432d3230000000604482015290519081900360640190fd5b601260ff168c8260ff16815181106200135457fe5b602002602001015160ff161115620013b3576040805162461bcd60e51b815260206004820152601a60248201527f546f6b656e20646563696d616c732065786365656473206d6178000000000000604482015290519081900360640190fd5b620013e68c8260ff1681518110620013c757fe5b602002602001015160ff16601260ff166200388290919063ffffffff16565b600a0a828260ff1681518110620013f957fe5b6020026020010181815250508060d960008f8460ff16815181106200141a57fe5b6020908102919091018101516001600160a01b03168252810191909152604001600020805460ff191660ff92909216919091179055600101620011dc565b50620f42408810620014a6576040805162461bcd60e51b81526020600482015260126024820152715f612065786365656473206d6178696d756d60701b604482015290519081900360640190fd5b6305f5e1008710620014f6576040805162461bcd60e51b81526020600482015260146024820152735f6665652065786365656473206d6178696d756d60601b604482015290519081900360640190fd5b6402540be400861062001550576040805162461bcd60e51b815260206004820152601960248201527f5f61646d696e4665652065786365656473206d6178696d756d00000000000000604482015290519081900360640190fd5b6305f5e1008410620015a9576040805162461bcd60e51b815260206004820152601c60248201527f5f77697468647261774665652065786365656473206d6178696d756d00000000604482015290519081900360640190fd5b6305f5e100851062001602576040805162461bcd60e51b815260206004820152601b60248201527f5f6465706f7369744665652065786365656473206d6178696d756d0000000000604482015290519081900360640190fd5b89896012604051620016149062003d84565b60ff82166040820152606080825284519082015283518190602080830191608084019188019080838360005b838110156200165a57818101518382015260200162001640565b50505050905090810190601f168015620016885780820380516001836020036101000a031916815260200191505b50838103825285518152855160209182019187019080838360005b83811015620016bd578181015183820152602001620016a3565b50505050905090810190601f168015620016eb5780820380516001836020036101000a031916815260200191505b5095505050505050604051809103906000f08015801562001710573d6000803e3d6000fd5b5060d280546001600160a01b0319166001600160a01b03929092169190911790558b51620017469060d39060208f019062003d92565b5080516200175c9060d490602084019062003dfc565b508b5167ffffffffffffffff811180156200177657600080fd5b50604051908082528060200260200182016040528015620017a1578160200160208202803683370190505b508051620017b89160d59160209091019062003dfc565b50620017c6886064620038e0565b60c955620017d6886064620038e0565b60ca5550600060cb81905560cc5560cd86905560ce85905560cf84905560d083905560d180546001600160a01b0319166001600160a01b038416179055801562001826576000805461ff00191690555b5050505050505050505050565b60da5460db5460dc546001600160a01b039092169183565b60606002609754141562001895576040805162461bcd60e51b815260206004820152601f6024820152600080516020620053ba833981519152604482015290519081900360640190fd5b60026097558142811015620018e4576040805162461bcd60e51b815260206004820152601060248201526f111958591b1a5b99481b9bdd081b595d60821b604482015290519081900360640190fd5b60c973__$a4e4384d4f8ec13c7a898ae597a4175ef6$__6373fd6b3e90918888886040518563ffffffff1660e01b815260040180858152602001848152602001806020018281038252848482818152602001925060200280828437600081840152601f19601f8201169050808301925050509550505050505060006040518083038186803b1580156200197657600080fd5b505af41580156200198b573d6000803e3d6000fd5b505050506040513d6000823e601f3d908101601f191682016040526020811015620019b557600080fd5b8101908080516040519392919084600160201b821115620019d557600080fd5b908301906020820185811115620019eb57600080fd5b82518660208202830111600160201b8211171562001a0857600080fd5b82525081516020918201928201910280838360005b8381101562001a3757818101518382015260200162001a1d565b505050509050016040525050509150506001609755949350505050565b62001a5e62003705565b6001600160a01b031662001a71620029c1565b6001600160a01b03161462001abc576040805162461bcd60e51b815260206004820181905260248201526000805160206200544f833981519152604482015290519081900360640190fd5b6040805163119f861b60e21b815260c9600482015260248101839052905173__$a4e4384d4f8ec13c7a898ae597a4175ef6$__9163467e186c916044808301926000929190829003018186803b15801562001b1657600080fd5b505af415801562001b2b573d6000803e3d6000fd5b5050505050565b60006002609754141562001b7c576040805162461bcd60e51b815260206004820152601f6024820152600080516020620053ba833981519152604482015290519081900360640190fd5b600260975562001b8b62002195565b1562001bd1576040805162461bcd60e51b815260206004820152601060248201526f14185d5cd8589b194e881c185d5cd95960821b604482015290519081900360640190fd5b818042111562001c1b576040805162461bcd60e51b815260206004820152601060248201526f111958591b1a5b99481b9bdd081b595d60821b604482015290519081900360640190fd5b6040805163c1a6627360e01b815260c9600482015260da60248201526044810188905260ff8716606482015260848101869052905173__$1a5dba2983ef15213a3f802776f90a9c3d$__9163c1a662739160a4808301926020929190829003018186803b15801562001c8c57600080fd5b505af415801562001ca1573d6000803e3d6000fd5b505050506040513d602081101562001cb857600080fd5b505160016097559695505050505050565b62001cd362003705565b6001600160a01b031662001ce6620029c1565b6001600160a01b03161462001d31576040805162461bcd60e51b815260206004820181905260248201526000805160206200544f833981519152604482015290519081900360640190fd5b62001d3b62003945565b565b604080516325a3956560e21b815260c960048201526001600160a01b0383166024820152905160009173__$a4e4384d4f8ec13c7a898ae597a4175ef6$__9163968e559491604480820192602092909190829003018186803b15801562001da357600080fd5b505af415801562001db8573d6000803e3d6000fd5b505050506040513d602081101562001dcf57600080fd5b505192915050565b60006002609754141562001e21576040805162461bcd60e51b815260206004820152601f6024820152600080516020620053ba833981519152604482015290519081900360640190fd5b600260975562001e3062002195565b1562001e76576040805162461bcd60e51b815260206004820152601060248201526f14185d5cd8589b194e881c185d5cd95960821b604482015290519081900360640190fd5b818042111562001ec0576040805162461bcd60e51b815260206004820152601060248201526f111958591b1a5b99481b9bdd081b595d60821b604482015290519081900360640190fd5b60c973__$1a5dba2983ef15213a3f802776f90a9c3d$__63d1ab4b4a909160da8989896040518663ffffffff1660e01b815260040180868152602001858152602001806020018381526020018281038252858582818152602001925060200280828437600081840152601f19601f820116905080830192505050965050505050505060206040518083038186803b15801562001c8c57600080fd5b62001f6562003705565b6001600160a01b031662001f78620029c1565b6001600160a01b03161462001fc3576040805162461bcd60e51b815260206004820181905260248201526000805160206200544f833981519152604482015290519081900360640190fd5b6040805163d2a3948760e01b815260c9600482015260248101839052905173__$a4e4384d4f8ec13c7a898ae597a4175ef6$__9163d2a39487916044808301926000929190829003018186803b15801562001b1657600080fd5b6200202762003705565b6001600160a01b03166200203a620029c1565b6001600160a01b03161462002085576040805162461bcd60e51b815260206004820181905260248201526000805160206200544f833981519152604482015290519081900360640190fd5b60c973__$a50a14a4f4d416df093fe8223c9bbe01e7$__6378f201d8909160c973__$a4e4384d4f8ec13c7a898ae597a4175ef6$__63c9b64dcb90916040518263ffffffff1660e01b81526004018082815260200191505060206040518083038186803b158015620020f657600080fd5b505af41580156200210b573d6000803e3d6000fd5b505050506040513d60208110156200212257600080fd5b5051604080516001600160e01b031960e086901b168152600481019390935260248301919091526044820186905260648201859052516084808301926000929190829003018186803b1580156200217857600080fd5b505af41580156200218d573d6000803e3d6000fd5b505050505050565b60655460ff1690565b60c95460ca5460cb5460cc5460cd5460ce5460cf5460d05460d15460d2546001600160a01b0391821691168a565b6001600160a01b038116600081815260d96020526040812054909160ff90911690620021f88262002690565b6001600160a01b0316146200224b576040805162461bcd60e51b8152602060048201526014602482015273151bdad95b88191bd95cc81b9bdd08195e1a5cdd60621b604482015290519081900360640190fd5b92915050565b6200225b62003705565b6001600160a01b03166200226e620029c1565b6001600160a01b031614620022b9576040805162461bcd60e51b815260206004820181905260248201526000805160206200544f833981519152604482015290519081900360640190fd5b6033546040516000916001600160a01b0316907f8be0079c531659141344cd1fd0a4f28419497f9722a3daafe3b4186f6b6457e0908390a3603380546001600160a01b0319169055565b60408051636a2babdd60e11b815260c9600482015260da602482015260ff80861660448301528416606482015260848101839052905160009173__$1a5dba2983ef15213a3f802776f90a9c3d$__9163d45757ba9160a480820192602092909190829003018186803b1580156200237957600080fd5b505af41580156200238e573d6000803e3d6000fd5b505050506040513d6020811015620023a557600080fd5b5051949350505050565b600060026097541415620023f9576040805162461bcd60e51b815260206004820152601f6024820152600080516020620053ba833981519152604482015290519081900360640190fd5b60026097556200240862002195565b156200244e576040805162461bcd60e51b815260206004820152601060248201526f14185d5cd8589b194e881c185d5cd95960821b604482015290519081900360640190fd5b818042111562002498576040805162461bcd60e51b815260206004820152601060248201526f111958591b1a5b99481b9bdd081b595d60821b604482015290519081900360640190fd5b604080516240123d60e11b815260c9600482015260da602482015260ff808a166044830152881660648201526084810187905260a48101869052905173__$1a5dba2983ef15213a3f802776f90a9c3d$__916280247a9160c4808301926020929190829003018186803b1580156200250f57600080fd5b505af415801562002524573d6000803e3d6000fd5b505050506040513d60208110156200253b57600080fd5b50516001609755979650505050505050565b6040805163f967a81f60e01b815260c960048201526001600160a01b038416602482015260448101839052905160609173__$a4e4384d4f8ec13c7a898ae597a4175ef6$__9163f967a81f91606480820192600092909190829003018186803b158015620025ba57600080fd5b505af4158015620025cf573d6000803e3d6000fd5b505050506040513d6000823e601f3d908101601f191682016040526020811015620025f957600080fd5b8101908080516040519392919084600160201b8211156200261957600080fd5b9083019060208201858111156200262f57600080fd5b82518660208202830111600160201b821117156200264c57600080fd5b82525081516020918201928201910280838360005b838110156200267b57818101518382015260200162002661565b50505050905001604052505050905092915050565b60d35460009060ff831610620026dc576040805162461bcd60e51b815260206004820152600c60248201526b4f7574206f662072616e676560a01b604482015290519081900360640190fd5b60d3805460ff8416908110620026ee57fe5b6000918252602090912001546001600160a01b031692915050565b6200271362003705565b6001600160a01b031662002726620029c1565b6001600160a01b03161462002771576040805162461bcd60e51b815260206004820181905260248201526000805160206200544f833981519152604482015290519081900360640190fd5b62001d3b620039ea565b600060026097541415620027c5576040805162461bcd60e51b815260206004820152601f6024820152600080516020620053ba833981519152604482015290519081900360640190fd5b6002609755620027d462002195565b156200281a576040805162461bcd60e51b815260206004820152601060248201526f14185d5cd8589b194e881c185d5cd95960821b604482015290519081900360640190fd5b818042111562002864576040805162461bcd60e51b815260206004820152601060248201526f111958591b1a5b99481b9bdd081b595d60821b604482015290519081900360640190fd5b60c973__$1a5dba2983ef15213a3f802776f90a9c3d$__637e971656909160da8989896040518663ffffffff1660e01b815260040180868152602001858152602001806020018381526020018281038252858582818152602001925060200280828437600081840152601f19601f820116905080830192505050965050505050505060206040518083038186803b15801562001c8c57600080fd5b6200290962003705565b6001600160a01b03166200291c620029c1565b6001600160a01b03161462002967576040805162461bcd60e51b815260206004820181905260248201526000805160206200544f833981519152604482015290519081900360640190fd5b60408051633823393b60e11b815260c9600482015260248101839052905173__$a4e4384d4f8ec13c7a898ae597a4175ef6$__916370467276916044808301926000929190829003018186803b15801562001b1657600080fd5b6033546001600160a01b031690565b60006002609754141562002a1a576040805162461bcd60e51b815260206004820152601f6024820152600080516020620053ba833981519152604482015290519081900360640190fd5b600260975562002a2962002195565b1562002a6f576040805162461bcd60e51b815260206004820152601060248201526f14185d5cd8589b194e881c185d5cd95960821b604482015290519081900360640190fd5b818042111562002ab9576040805162461bcd60e51b815260206004820152601060248201526f111958591b1a5b99481b9bdd081b595d60821b604482015290519081900360640190fd5b604080516398414eed60e01b815260c9600482015260da602482015260ff808a166044830152881660648201526084810187905260a48101869052905173__$1a5dba2983ef15213a3f802776f90a9c3d$__916398414eed9160c4808301926020929190829003018186803b1580156200250f57600080fd5b60d35460009060ff83161062002b84576040805162461bcd60e51b8152602060048201526012602482015271496e646578206f7574206f662072616e676560701b604482015290519081900360640190fd5b60d5805460ff841690811062002b9657fe5b90600052602060002001549050919050565b600054610100900460ff168062002bc4575062002bc462003709565b8062002bd3575060005460ff16155b62002c105760405162461bcd60e51b815260040180806020018281038252602e81526020018062005400602e913960400191505060405180910390fd5b600054610100900460ff1615801562002c3c576000805460ff1961ff0019909116610100171660011790555b62002c508c8c8c8c8c8c8c8c8c8c62000fe2565b60da80546001600160a01b0319166001600160a01b0384169081179091556040805163712d52fd60e11b8152905163e25aa5fa91600480820192602092909190829003018186803b15801562002ca557600080fd5b505afa15801562002cba573d6000803e3d6000fd5b505050506040513d602081101562002cd157600080fd5b505160db554260dc5560005b60208160ff16101562002e4657826001600160a01b03166382b86600826040518263ffffffff1660e01b8152600401808260ff16815260200191505060206040518083038186803b15801562002d3257600080fd5b505afa92505050801562002d5957506040513d602081101562002d5457600080fd5b505160015b62002d645762002e46565b806001600160a01b031663095ea7b3856000196040518363ffffffff1660e01b815260040180836001600160a01b0316815260200182815260200192505050602060405180830381600087803b15801562002dbe57600080fd5b505af115801562002dd3573d6000803e3d6000fd5b505050506040513d602081101562002dea57600080fd5b505060dd80546001810182556000919091527fac507b9f8bf86ad8bb770f71cd2b1992902ae0314d93fc0f2bb011d70e7962260180546001600160a01b039092166001600160a01b031990921691909117905560010162002cdd565b508b60018d51038151811062002e5857fe5b60200260200101516001600160a01b031663095ea7b3836000196040518363ffffffff1660e01b815260040180836001600160a01b0316815260200182815260200192505050602060405180830381600087803b15801562002eb957600080fd5b505af115801562002ece573d6000803e3d6000fd5b505050506040513d602081101562002ee557600080fd5b5050801562002efa576000805461ff00191690555b505050505050505050505050565b6040805163254005d760e21b815260c9600482015260da60248201526001600160a01b03851660448201526064810184905260ff83166084820152905160009173__$1a5dba2983ef15213a3f802776f90a9c3d$__91639500175c9160a480820192602092909190829003018186803b1580156200237957600080fd5b60408051635afb90ff60e01b815260c9600482015260da602482015260ff80861660448301528416606482015260848101839052905160009173__$1a5dba2983ef15213a3f802776f90a9c3d$__91635afb90ff9160a480820192602092909190829003018186803b1580156200237957600080fd5b6200300562003705565b6001600160a01b031662003018620029c1565b6001600160a01b03161462003063576040805162461bcd60e51b815260206004820181905260248201526000805160206200544f833981519152604482015290519081900360640190fd5b6040805163455bb4bf60e11b815260c9600482015260248101839052905173__$a4e4384d4f8ec13c7a898ae597a4175ef6$__91638ab7697e916044808301926000929190829003018186803b15801562001b1657600080fd5b60d2546001600160a01b031633146200311d576040805162461bcd60e51b815260206004820152601b60248201527f4f6e6c792063616c6c61626c6520627920706f6f6c20746f6b656e0000000000604482015290519081900360640190fd5b6040805163749296a360e11b815260c960048201526001600160a01b038416602482015260448101839052905173__$a4e4384d4f8ec13c7a898ae597a4175ef6$__9163e9252d46916064808301926000929190829003018186803b1580156200217857600080fd5b6200319062003705565b6001600160a01b0316620031a3620029c1565b6001600160a01b031614620031ee576040805162461bcd60e51b815260206004820181905260248201526000805160206200544f833981519152604482015290519081900360640190fd5b60c973__$a50a14a4f4d416df093fe8223c9bbe01e7$__639d6b2624909160c973__$a4e4384d4f8ec13c7a898ae597a4175ef6$__63c9b64dcb90916040518263ffffffff1660e01b81526004018082815260200191505060206040518083038186803b1580156200325f57600080fd5b505af415801562003274573d6000803e3d6000fd5b505050506040513d60208110156200328b57600080fd5b5051604080516001600160e01b031960e086901b16815260048101939093526024830191909152516044808301926000929190829003018186803b15801562000f3f57600080fd5b620032dd62003705565b6001600160a01b0316620032f0620029c1565b6001600160a01b0316146200333b576040805162461bcd60e51b815260206004820181905260248201526000805160206200544f833981519152604482015290519081900360640190fd5b604080516321c363e760e11b815260c960048201526001600160a01b0383166024820152905173__$a4e4384d4f8ec13c7a898ae597a4175ef6$__91634386c7ce916044808301926000929190829003018186803b15801562001b1657600080fd5b600060c973__$a4e4384d4f8ec13c7a898ae597a4175ef6$__63b0a14cfc90916040518263ffffffff1660e01b81526004018082815260200191505060206040518083038186803b15801562000faf57600080fd5b60408051633a311e9560e21b815260c960048201526001600160a01b0383166024820152905160009173__$a4e4384d4f8ec13c7a898ae597a4175ef6$__9163e8c47a5491604480820192602092909190829003018186803b15801562001da357600080fd5b6040805163e9d4d07760e01b815260c9600482015260da6024820152905160009173__$1a5dba2983ef15213a3f802776f90a9c3d$__9163e9d4d07791604480820192602092909190829003018186803b15801562000faf57600080fd5b600060c973__$a4e4384d4f8ec13c7a898ae597a4175ef6$__637d0481609091846040518363ffffffff1660e01b8152600401808381526020018281526020019250505060206040518083038186803b15801562001da357600080fd5b6200351d62003705565b6001600160a01b031662003530620029c1565b6001600160a01b0316146200357b576040805162461bcd60e51b815260206004820181905260248201526000805160206200544f833981519152604482015290519081900360640190fd5b6001600160a01b038116620035c25760405162461bcd60e51b8152600401808060200182810382526026815260200180620053da6026913960400191505060405180910390fd5b6033546040516001600160a01b038084169216907f8be0079c531659141344cd1fd0a4f28419497f9722a3daafe3b4186f6b6457e090600090a3603380546001600160a01b0319166001600160a01b0392909216919091179055565b600060c973__$1a5dba2983ef15213a3f802776f90a9c3d$__63b4c9d86e909160da888888886040518763ffffffff1660e01b815260040180878152602001868152602001856001600160a01b031681526020018060200183151581526020018281038252858582818152602001925060200280828437600081840152601f19601f82011690508083019250505097505050505050505060206040518083038186803b158015620036ce57600080fd5b505af4158015620036e3573d6000803e3d6000fd5b505050506040513d6020811015620036fa57600080fd5b505195945050505050565b3390565b6000620037163062003a72565b15905090565b600054610100900460ff16806200373857506200373862003709565b8062003747575060005460ff16155b620037845760405162461bcd60e51b815260040180806020018281038252602e81526020018062005400602e913960400191505060405180910390fd5b600054610100900460ff16158015620037b0576000805460ff1961ff0019909116610100171660011790555b620037ba62003a78565b620037c462003b20565b620037ce62003c23565b8015620037e1576000805461ff00191690555b50565b600054610100900460ff16806200380057506200380062003709565b806200380f575060005460ff16155b6200384c5760405162461bcd60e51b815260040180806020018281038252602e81526020018062005400602e913960400191505060405180910390fd5b600054610100900460ff1615801562003878576000805460ff1961ff0019909116610100171660011790555b620037ce62003cd6565b600082821115620038da576040805162461bcd60e51b815260206004820152601e60248201527f536166654d6174683a207375627472616374696f6e206f766572666c6f770000604482015290519081900360640190fd5b50900390565b600082620038f1575060006200224b565b82820282848281620038ff57fe5b04146200393e5760405162461bcd60e51b81526004018080602001828103825260218152602001806200542e6021913960400191505060405180910390fd5b9392505050565b6200394f62002195565b62003998576040805162461bcd60e51b815260206004820152601460248201527314185d5cd8589b194e881b9bdd081c185d5cd95960621b604482015290519081900360640190fd5b6065805460ff191690557f5db9ee0a495bf2e6ff9c91a7834c1ba4fdd244a5e8aa4e537bd38aeae4b073aa620039cd62003705565b604080516001600160a01b039092168252519081900360200190a1565b620039f462002195565b1562003a3a576040805162461bcd60e51b815260206004820152601060248201526f14185d5cd8589b194e881c185d5cd95960821b604482015290519081900360640190fd5b6065805460ff191660011790557f62e78cea01bee320cd4e420270b5ea74000d11b0c9f74754ebdbfc544b05a258620039cd62003705565b3b151590565b600054610100900460ff168062003a94575062003a9462003709565b8062003aa3575060005460ff16155b62003ae05760405162461bcd60e51b815260040180806020018281038252602e81526020018062005400602e913960400191505060405180910390fd5b600054610100900460ff16158015620037ce576000805460ff1961ff0019909116610100171660011790558015620037e1576000805461ff001916905550565b600054610100900460ff168062003b3c575062003b3c62003709565b8062003b4b575060005460ff16155b62003b885760405162461bcd60e51b815260040180806020018281038252602e81526020018062005400602e913960400191505060405180910390fd5b600054610100900460ff1615801562003bb4576000805460ff1961ff0019909116610100171660011790555b600062003bc062003705565b603380546001600160a01b0319166001600160a01b038316908117909155604051919250906000907f8be0079c531659141344cd1fd0a4f28419497f9722a3daafe3b4186f6b6457e0908290a3508015620037e1576000805461ff001916905550565b600054610100900460ff168062003c3f575062003c3f62003709565b8062003c4e575060005460ff16155b62003c8b5760405162461bcd60e51b815260040180806020018281038252602e81526020018062005400602e913960400191505060405180910390fd5b600054610100900460ff1615801562003cb7576000805460ff1961ff0019909116610100171660011790555b6065805460ff191690558015620037e1576000805461ff001916905550565b600054610100900460ff168062003cf2575062003cf262003709565b8062003d01575060005460ff16155b62003d3e5760405162461bcd60e51b815260040180806020018281038252602e81526020018062005400602e913960400191505060405180910390fd5b600054610100900460ff1615801562003d6a576000805460ff1961ff0019909116610100171660011790555b60016097558015620037e1576000805461ff001916905550565b6115398062003e8183390190565b82805482825590600052602060002090810192821562003dea579160200282015b8281111562003dea57825182546001600160a01b0319166001600160a01b0390911617825560209092019160019091019062003db3565b5062003df892915062003e48565b5090565b82805482825590600052602060002090810192821562003e3a579160200282015b8281111562003e3a57825182559160200191906001019062003e1d565b5062003df892915062003e69565b5b8082111562003df85780546001600160a01b031916815560010162003e49565b5b8082111562003df8576000815560010162003e6a56fe60a06040523480156200001157600080fd5b506040516200153938038062001539833981810160405260608110156200003757600080fd5b81019080805160405193929190846401000000008211156200005857600080fd5b9083019060208201858111156200006e57600080fd5b82516401000000008111828201881017156200008957600080fd5b82525081516020918201929091019080838360005b83811015620000b85781810151838201526020016200009e565b50505050905090810190601f168015620000e65780820380516001836020036101000a031916815260200191505b50604052602001805160405193929190846401000000008211156200010a57600080fd5b9083019060208201858111156200012057600080fd5b82516401000000008111828201881017156200013b57600080fd5b82525081516020918201929091019080838360005b838110156200016a57818101518382015260200162000150565b50505050905090810190601f168015620001985780820380516001836020036101000a031916815260200191505b5060405260209081015185519093508592508491620001bd916003918501906200028e565b508051620001d39060049060208401906200028e565b50506005805460ff19166012179055506000620001ef62000274565b60058054610100600160a81b0319166101006001600160a01b03841690810291909117909155604051919250906000907f8be0079c531659141344cd1fd0a4f28419497f9722a3daafe3b4186f6b6457e0908290a350620002508162000278565b6200025a62000274565b60601b6001600160601b031916608052506200032a915050565b3390565b6005805460ff191660ff92909216919091179055565b828054600181600116156101000203166002900490600052602060002090601f016020900481019282601f10620002d157805160ff191683800117855562000301565b8280016001018555821562000301579182015b8281111562000301578251825591602001919060010190620002e4565b506200030f92915062000313565b5090565b5b808211156200030f576000815560010162000314565b60805160601c6111ec6200034d6000398061079f5280610f3952506111ec6000f3fe608060405234801561001057600080fd5b50600436106101165760003560e01c8063715018a6116100a257806395d89b411161007157806395d89b4114610343578063a457c2d71461034b578063a9059cbb14610377578063dd62ed3e146103a3578063f2fde38b146103d157610116565b8063715018a6146102e357806379cc6790146102eb5780638119c065146103175780638da5cb5b1461033b57610116565b8063313ce567116100e9578063313ce56714610228578063395093511461024657806340c10f191461027257806342966c68146102a057806370a08231146102bd57610116565b806306fdde031461011b578063095ea7b31461019857806318160ddd146101d857806323b872dd146101f2575b600080fd5b6101236103f7565b6040805160208082528351818301528351919283929083019185019080838360005b8381101561015d578181015183820152602001610145565b50505050905090810190601f16801561018a5780820380516001836020036101000a031916815260200191505b509250505060405180910390f35b6101c4600480360360408110156101ae57600080fd5b506001600160a01b03813516906020013561048d565b604080519115158252519081900360200190f35b6101e06104aa565b60408051918252519081900360200190f35b6101c46004803603606081101561020857600080fd5b506001600160a01b038135811691602081013590911690604001356104b0565b610230610537565b6040805160ff9092168252519081900360200190f35b6101c46004803603604081101561025c57600080fd5b506001600160a01b038135169060200135610540565b61029e6004803603604081101561028857600080fd5b506001600160a01b03813516906020013561058e565b005b61029e600480360360208110156102b657600080fd5b5035610650565b6101e0600480360360208110156102d357600080fd5b50356001600160a01b0316610664565b61029e61067f565b61029e6004803603604081101561030157600080fd5b506001600160a01b038135169060200135610743565b61031f61079d565b604080516001600160a01b039092168252519081900360200190f35b61031f6107c1565b6101236107d5565b6101c46004803603604081101561036157600080fd5b506001600160a01b038135169060200135610836565b6101c46004803603604081101561038d57600080fd5b506001600160a01b03813516906020013561089e565b6101e0600480360360408110156103b957600080fd5b506001600160a01b03813581169160200135166108b2565b61029e600480360360208110156103e757600080fd5b50356001600160a01b03166108dd565b60038054604080516020601f60026000196101006001881615020190951694909404938401819004810282018101909252828152606093909290918301828280156104835780601f1061045857610100808354040283529160200191610483565b820191906000526020600020905b81548152906001019060200180831161046657829003601f168201915b5050505050905090565b60006104a161049a6109fd565b8484610a01565b50600192915050565b60025490565b60006104bd848484610aed565b61052d846104c96109fd565b610528856040518060600160405280602881526020016110dc602891396001600160a01b038a166000908152600160205260408120906105076109fd565b6001600160a01b031681526020810191909152604001600020549190610c48565b610a01565b5060019392505050565b60055460ff1690565b60006104a161054d6109fd565b84610528856001600061055e6109fd565b6001600160a01b03908116825260208083019390935260409182016000908120918c168152925290205490610cdf565b6105966109fd565b6001600160a01b03166105a76107c1565b6001600160a01b031614610602576040805162461bcd60e51b815260206004820181905260248201527f4f776e61626c653a2063616c6c6572206973206e6f7420746865206f776e6572604482015290519081900360640190fd5b80610642576040805162461bcd60e51b815260206004820152600b60248201526a0616d6f756e74203d3d20360ac1b604482015290519081900360640190fd5b61064c8282610d40565b5050565b61066161065b6109fd565b82610e30565b50565b6001600160a01b031660009081526020819052604090205490565b6106876109fd565b6001600160a01b03166106986107c1565b6001600160a01b0316146106f3576040805162461bcd60e51b815260206004820181905260248201527f4f776e61626c653a2063616c6c6572206973206e6f7420746865206f776e6572604482015290519081900360640190fd5b60055460405160009161010090046001600160a01b0316907f8be0079c531659141344cd1fd0a4f28419497f9722a3daafe3b4186f6b6457e0908390a360058054610100600160a81b0319169055565b600061077a82604051806060016040528060248152602001611104602491396107738661076e6109fd565b6108b2565b9190610c48565b905061078e836107886109fd565b83610a01565b6107988383610e30565b505050565b7f000000000000000000000000000000000000000000000000000000000000000081565b60055461010090046001600160a01b031690565b60048054604080516020601f60026000196101006001881615020190951694909404938401819004810282018101909252828152606093909290918301828280156104835780601f1061045857610100808354040283529160200191610483565b60006104a16108436109fd565b8461052885604051806060016040528060258152602001611192602591396001600061086d6109fd565b6001600160a01b03908116825260208083019390935260409182016000908120918d16815292529020549190610c48565b60006104a16108ab6109fd565b8484610aed565b6001600160a01b03918216600090815260016020908152604080832093909416825291909152205490565b6108e56109fd565b6001600160a01b03166108f66107c1565b6001600160a01b031614610951576040805162461bcd60e51b815260206004820181905260248201527f4f776e61626c653a2063616c6c6572206973206e6f7420746865206f776e6572604482015290519081900360640190fd5b6001600160a01b0381166109965760405162461bcd60e51b815260040180806020018281038252602681526020018061106e6026913960400191505060405180910390fd5b6005546040516001600160a01b0380841692610100900416907f8be0079c531659141344cd1fd0a4f28419497f9722a3daafe3b4186f6b6457e090600090a3600580546001600160a01b0390921661010002610100600160a81b0319909216919091179055565b3390565b6001600160a01b038316610a465760405162461bcd60e51b815260040180806020018281038252602481526020018061116e6024913960400191505060405180910390fd5b6001600160a01b038216610a8b5760405162461bcd60e51b81526004018080602001828103825260228152602001806110946022913960400191505060405180910390fd5b6001600160a01b03808416600081815260016020908152604080832094871680845294825291829020859055815185815291517f8c5be1e5ebec7d5bd14f71427d1e84f3dd0314c0f7b2291e5b200ac8c7c3b9259281900390910190a3505050565b6001600160a01b038316610b325760405162461bcd60e51b81526004018080602001828103825260258152602001806111496025913960400191505060405180910390fd5b6001600160a01b038216610b775760405162461bcd60e51b81526004018080602001828103825260238152602001806110296023913960400191505060405180910390fd5b610b82838383610f2c565b610bbf816040518060600160405280602681526020016110b6602691396001600160a01b0386166000908152602081905260409020549190610c48565b6001600160a01b038085166000908152602081905260408082209390935590841681522054610bee9082610cdf565b6001600160a01b038084166000818152602081815260409182902094909455805185815290519193928716927fddf252ad1be2c89b69c2b068fc378daa952ba7f163c4a11628f55a4df523b3ef92918290030190a3505050565b60008184841115610cd75760405162461bcd60e51b81526004018080602001828103825283818151815260200191508051906020019080838360005b83811015610c9c578181015183820152602001610c84565b50505050905090810190601f168015610cc95780820380516001836020036101000a031916815260200191505b509250505060405180910390fd5b505050900390565b600082820183811015610d39576040805162461bcd60e51b815260206004820152601b60248201527f536166654d6174683a206164646974696f6e206f766572666c6f770000000000604482015290519081900360640190fd5b9392505050565b6001600160a01b038216610d9b576040805162461bcd60e51b815260206004820152601f60248201527f45524332303a206d696e7420746f20746865207a65726f206164647265737300604482015290519081900360640190fd5b610da760008383610f2c565b600254610db49082610cdf565b6002556001600160a01b038216600090815260208190526040902054610dda9082610cdf565b6001600160a01b0383166000818152602081815260408083209490945583518581529351929391927fddf252ad1be2c89b69c2b068fc378daa952ba7f163c4a11628f55a4df523b3ef9281900390910190a35050565b6001600160a01b038216610e755760405162461bcd60e51b81526004018080602001828103825260218152602001806111286021913960400191505060405180910390fd5b610e8182600083610f2c565b610ebe8160405180606001604052806022815260200161104c602291396001600160a01b0385166000908152602081905260409020549190610c48565b6001600160a01b038316600090815260208190526040902055600254610ee49082610fcb565b6002556040805182815290516000916001600160a01b038516917fddf252ad1be2c89b69c2b068fc378daa952ba7f163c4a11628f55a4df523b3ef9181900360200190a35050565b610f37838383610798565b7f00000000000000000000000000000000000000000000000000000000000000006001600160a01b031663c00c125c83836040518363ffffffff1660e01b815260040180836001600160a01b0316815260200182815260200192505050600060405180830381600087803b158015610fae57600080fd5b505af1158015610fc2573d6000803e3d6000fd5b50505050505050565b600082821115611022576040805162461bcd60e51b815260206004820152601e60248201527f536166654d6174683a207375627472616374696f6e206f766572666c6f770000604482015290519081900360640190fd5b5090039056fe45524332303a207472616e7366657220746f20746865207a65726f206164647265737345524332303a206275726e20616d6f756e7420657863656564732062616c616e63654f776e61626c653a206e6577206f776e657220697320746865207a65726f206164647265737345524332303a20617070726f766520746f20746865207a65726f206164647265737345524332303a207472616e7366657220616d6f756e7420657863656564732062616c616e636545524332303a207472616e7366657220616d6f756e74206578636565647320616c6c6f77616e636545524332303a206275726e20616d6f756e74206578636565647320616c6c6f77616e636545524332303a206275726e2066726f6d20746865207a65726f206164647265737345524332303a207472616e736665722066726f6d20746865207a65726f206164647265737345524332303a20617070726f76652066726f6d20746865207a65726f206164647265737345524332303a2064656372656173656420616c6c6f77616e63652062656c6f77207a65726fa26469706673582212200bb3b6551e7e77768c4655aded63acfd3ae516bd7f549ed8131a93cb321e12d464736f6c634300060c00335265656e7472616e637947756172643a207265656e7472616e742063616c6c004f776e61626c653a206e6577206f776e657220697320746865207a65726f2061646472657373496e697469616c697a61626c653a20636f6e747261637420697320616c726561647920696e697469616c697a6564536166654d6174683a206d756c7469706c69636174696f6e206f766572666c6f774f776e61626c653a2063616c6c6572206973206e6f7420746865206f776e6572a26469706673582212204ad476b2e19547423de8a464d84d1a08a9520de5fdedad653da27eedf40905fb64736f6c634300060c0033",
  "linkReferences": {
    "contracts/AmplificationUtils.sol": {
      "AmplificationUtils": [
        {
          "length": 20,
          "start": 8371
        },
        {
          "length": 20,
          "start": 12828
        }
      ]
    },
    "contracts/SwapUtils.sol": {
      "SwapUtils": [
        {
          "length": 20,
          "start": 3840
        },
        {
          "length": 20,
          "start": 3978
        },
        {
          "length": 20,
          "start": 6418
        },
        {
          "length": 20,
          "start": 6918
        },
        {
          "length": 20,
          "start": 7570
        },
        {
          "length": 20,
          "start": 8205
        },
        {
          "length": 20,
          "start": 8401
        },
        {
          "length": 20,
          "start": 9641
        },
        {
          "length": 20,
          "start": 10673
        },
        {
          "length": 20,
          "start": 12461
        },
        {
          "length": 20,
          "start": 12662
        },
        {
          "length": 20,
          "start": 12858
        },
        {
          "length": 20,
          "start": 13197
        },
        {
          "length": 20,
          "start": 13261
        },
        {
          "length": 20,
          "start": 13383
        },
        {
          "length": 20,
          "start": 13542
        }
      ]
    },
    "contracts/metaswap/MetaSwapUtils.sol": {
      "MetaSwapUtils": [
        {
          "length": 20,
          "start": 7292
        },
        {
          "length": 20,
          "start": 7918
        },
        {
          "length": 20,
          "start": 9064
        },
        {
          "length": 20,
          "start": 9472
        },
        {
          "length": 20,
          "start": 10386
        },
        {
          "length": 20,
          "start": 11042
        },
        {
          "length": 20,
          "start": 12148
        },
        {
          "length": 20,
          "start": 12266
        },
        {
          "length": 20,
          "start": 13477
        },
        {
          "length": 20,
          "start": 13902
        }
      ]
    }
  },
  "deployedLinkReferences": {
    "contracts/AmplificationUtils.sol": {
      "AmplificationUtils": [
        {
          "length": 20,
          "start": 8329
        },
        {
          "length": 20,
          "start": 12786
        }
      ]
    },
    "contracts/SwapUtils.sol": {
      "SwapUtils": [
        {
          "length": 20,
          "start": 3798
        },
        {
          "length": 20,
          "start": 3936
        },
        {
          "length": 20,
          "start": 6376
        },
        {
          "length": 20,
          "start": 6876
        },
        {
          "length": 20,
          "start": 7528
        },
        {
          "length": 20,
          "start": 8163
        },
        {
          "length": 20,
          "start": 8359
        },
        {
          "length": 20,
          "start": 9599
        },
        {
          "length": 20,
          "start": 10631
        },
        {
          "length": 20,
          "start": 12419
        },
        {
          "length": 20,
          "start": 12620
        },
        {
          "length": 20,
          "start": 12816
        },
        {
          "length": 20,
          "start": 13155
        },
        {
          "length": 20,
          "start": 13219
        },
        {
          "length": 20,
          "start": 13341
        },
        {
          "length": 20,
          "start": 13500
        }
      ]
    },
    "contracts/metaswap/MetaSwapUtils.sol": {
      "MetaSwapUtils": [
        {
          "length": 20,
          "start": 7250
        },
        {
          "length": 20,
          "start": 7876
        },
        {
          "length": 20,
          "start": 9022
        },
        {
          "length": 20,
          "start": 9430
        },
        {
          "length": 20,
          "start": 10344
        },
        {
          "length": 20,
          "start": 11000
        },
        {
          "length": 20,
          "start": 12106
        },
        {
          "length": 20,
          "start": 12224
        },
        {
          "length": 20,
          "start": 13435
        },
        {
          "length": 20,
          "start": 13860
        }
      ]
    }
  }
}