{
  "_format": "hh-sol-artifact-1",
  "contractName": "SwapzToken",
  "sourceName": "contracts/SwapzToken.sol",
  "abi": [
    {
      "inputs": [],
      "stateMutability": "nonpayable",
      "type": "constructor"
    },
    {
      "anonymous": false,
      "inputs": [
        {
          "indexed": true,
          "internalType": "address",
          "name": "owner",
          "type": "address"
        },
        {
          "indexed": true,
          "internalType": "address",
          "name": "spender",
          "type": "address"
        },
        {
          "indexed": false,
          "internalType": "uint256",
          "name": "value",
          "type": "uint256"
        }
      ],
      "name": "Approval",
      "type": "event"
    },
    {
      "anonymous": false,
      "inputs": [
        {
          "indexed": true,
          "internalType": "address",
          "name": "delegator",
          "type": "address"
        },
        {
          "indexed": true,
          "internalType": "address",
          "name": "fromDelegate",
          "type": "address"
        },
        {
          "indexed": true,
          "internalType": "address",
          "name": "toDelegate",
          "type": "address"
        }
      ],
      "name": "DelegateChanged",
      "type": "event"
    },
    {
      "anonymous": false,
      "inputs": [
        {
          "indexed": true,
          "internalType": "address",
          "name": "delegate",
          "type": "address"
        },
        {
          "indexed": false,
          "internalType": "uint256",
          "name": "previousBalance",
          "type": "uint256"
        },
        {
          "indexed": false,
          "internalType": "uint256",
          "name": "newBalance",
          "type": "uint256"
        }
      ],
      "name": "DelegateVotesChanged",
      "type": "event"
    },
    {
      "anonymous": false,
      "inputs": [
        {
          "indexed": true,
          "internalType": "address",
          "name": "previousOwner",
          "type": "address"
        },
        {
          "indexed": true,
          "internalType": "address",
          "name": "newOwner",
          "type": "address"
        }
      ],
      "name": "OwnershipTransferred",
      "type": "event"
    },
    {
      "anonymous": false,
      "inputs": [
        {
          "indexed": true,
          "internalType": "bytes32",
          "name": "role",
          "type": "bytes32"
        },
        {
          "indexed": true,
          "internalType": "bytes32",
          "name": "previousAdminRole",
          "type": "bytes32"
        },
        {
          "indexed": true,
          "internalType": "bytes32",
          "name": "newAdminRole",
          "type": "bytes32"
        }
      ],
      "name": "RoleAdminChanged",
      "type": "event"
    },
    {
      "anonymous": false,
      "inputs": [
        {
          "indexed": true,
          "internalType": "bytes32",
          "name": "role",
          "type": "bytes32"
        },
        {
          "indexed": true,
          "internalType": "address",
          "name": "account",
          "type": "address"
        },
        {
          "indexed": true,
          "internalType": "address",
          "name": "sender",
          "type": "address"
        }
      ],
      "name": "RoleGranted",
      "type": "event"
    },
    {
      "anonymous": false,
      "inputs": [
        {
          "indexed": true,
          "internalType": "bytes32",
          "name": "role",
          "type": "bytes32"
        },
        {
          "indexed": true,
          "internalType": "address",
          "name": "account",
          "type": "address"
        },
        {
          "indexed": true,
          "internalType": "address",
          "name": "sender",
          "type": "address"
        }
      ],
      "name": "RoleRevoked",
      "type": "event"
    },
    {
      "anonymous": false,
      "inputs": [
        {
          "indexed": true,
          "internalType": "address",
          "name": "from",
          "type": "address"
        },
        {
          "indexed": true,
          "internalType": "address",
          "name": "to",
          "type": "address"
        },
        {
          "indexed": false,
          "internalType": "uint256",
          "name": "value",
          "type": "uint256"
        }
      ],
      "name": "Transfer",
      "type": "event"
    },
    {
      "inputs": [],
      "name": "DEFAULT_ADMIN_ROLE",
      "outputs": [
        {
          "internalType": "bytes32",
          "name": "",
          "type": "bytes32"
        }
      ],
      "stateMutability": "view",
      "type": "function"
    },
    {
      "inputs": [],
      "name": "DELEGATION_TYPEHASH",
      "outputs": [
        {
          "internalType": "bytes32",
          "name": "",
          "type": "bytes32"
        }
      ],
      "stateMutability": "view",
      "type": "function"
    },
    {
      "inputs": [],
      "name": "DOMAIN_TYPEHASH",
      "outputs": [
        {
          "internalType": "bytes32",
          "name": "",
          "type": "bytes32"
        }
      ],
      "stateMutability": "view",
      "type": "function"
    },
    {
      "inputs": [],
      "name": "MINTER_ROLE",
      "outputs": [
        {
          "internalType": "bytes32",
          "name": "",
          "type": "bytes32"
        }
      ],
      "stateMutability": "view",
      "type": "function"
    },
    {
      "inputs": [
        {
          "internalType": "address",
          "name": "owner",
          "type": "address"
        },
        {
          "internalType": "address",
          "name": "spender",
          "type": "address"
        }
      ],
      "name": "allowance",
      "outputs": [
        {
          "internalType": "uint256",
          "name": "",
          "type": "uint256"
        }
      ],
      "stateMutability": "view",
      "type": "function"
    },
    {
      "inputs": [
        {
          "internalType": "address",
          "name": "spender",
          "type": "address"
        },
        {
          "internalType": "uint256",
          "name": "amount",
          "type": "uint256"
        }
      ],
      "name": "approve",
      "outputs": [
        {
          "internalType": "bool",
          "name": "",
          "type": "bool"
        }
      ],
      "stateMutability": "nonpayable",
      "type": "function"
    },
    {
      "inputs": [
        {
          "internalType": "address",
          "name": "account",
          "type": "address"
        }
      ],
      "name": "balanceOf",
      "outputs": [
        {
          "internalType": "uint256",
          "name": "",
          "type": "uint256"
        }
      ],
      "stateMutability": "view",
      "type": "function"
    },
    {
      "inputs": [
        {
          "internalType": "uint256",
          "name": "amount",
          "type": "uint256"
        }
      ],
      "name": "burn",
      "outputs": [],
      "stateMutability": "nonpayable",
      "type": "function"
    },
    {
      "inputs": [
        {
          "internalType": "address",
          "name": "account",
          "type": "address"
        },
        {
          "internalType": "uint256",
          "name": "amount",
          "type": "uint256"
        }
      ],
      "name": "burnFrom",
      "outputs": [],
      "stateMutability": "nonpayable",
      "type": "function"
    },
    {
      "inputs": [
        {
          "internalType": "address",
          "name": "",
          "type": "address"
        },
        {
          "internalType": "uint32",
          "name": "",
          "type": "uint32"
        }
      ],
      "name": "checkpoints",
      "outputs": [
        {
          "internalType": "uint32",
          "name": "fromBlock",
          "type": "uint32"
        },
        {
          "internalType": "uint256",
          "name": "votes",
          "type": "uint256"
        }
      ],
      "stateMutability": "view",
      "type": "function"
    },
    {
      "inputs": [],
      "name": "decimals",
      "outputs": [
        {
          "internalType": "uint8",
          "name": "",
          "type": "uint8"
        }
      ],
      "stateMutability": "view",
      "type": "function"
    },
    {
      "inputs": [
        {
          "internalType": "address",
          "name": "spender",
          "type": "address"
        },
        {
          "internalType": "uint256",
          "name": "subtractedValue",
          "type": "uint256"
        }
      ],
      "name": "decreaseAllowance",
      "outputs": [
        {
          "internalType": "bool",
          "name": "",
          "type": "bool"
        }
      ],
      "stateMutability": "nonpayable",
      "type": "function"
    },
    {
      "inputs": [
        {
          "internalType": "address",
          "name": "delegatee",
          "type": "address"
        }
      ],
      "name": "delegate",
      "outputs": [],
      "stateMutability": "nonpayable",
      "type": "function"
    },
    {
      "inputs": [
        {
          "internalType": "address",
          "name": "delegatee",
          "type": "address"
        },
        {
          "internalType": "uint256",
          "name": "nonce",
          "type": "uint256"
        },
        {
          "internalType": "uint256",
          "name": "expiry",
          "type": "uint256"
        },
        {
          "internalType": "uint8",
          "name": "v",
          "type": "uint8"
        },
        {
          "internalType": "bytes32",
          "name": "r",
          "type": "bytes32"
        },
        {
          "internalType": "bytes32",
          "name": "s",
          "type": "bytes32"
        }
      ],
      "name": "delegateBySig",
      "outputs": [],
      "stateMutability": "nonpayable",
      "type": "function"
    },
    {
      "inputs": [
        {
          "internalType": "address",
          "name": "delegator",
          "type": "address"
        }
      ],
      "name": "delegates",
      "outputs": [
        {
          "internalType": "address",
          "name": "",
          "type": "address"
        }
      ],
      "stateMutability": "view",
      "type": "function"
    },
    {
      "inputs": [
        {
          "internalType": "address",
          "name": "account",
          "type": "address"
        }
      ],
      "name": "getCurrentVotes",
      "outputs": [
        {
          "internalType": "uint256",
          "name": "",
          "type": "uint256"
        }
      ],
      "stateMutability": "view",
      "type": "function"
    },
    {
      "inputs": [
        {
          "internalType": "address",
          "name": "account",
          "type": "address"
        },
        {
          "internalType": "uint256",
          "name": "blockNumber",
          "type": "uint256"
        }
      ],
      "name": "getPriorVotes",
      "outputs": [
        {
          "internalType": "uint256",
          "name": "",
          "type": "uint256"
        }
      ],
      "stateMutability": "view",
      "type": "function"
    },
    {
      "inputs": [
        {
          "internalType": "bytes32",
          "name": "role",
          "type": "bytes32"
        }
      ],
      "name": "getRoleAdmin",
      "outputs": [
        {
          "internalType": "bytes32",
          "name": "",
          "type": "bytes32"
        }
      ],
      "stateMutability": "view",
      "type": "function"
    },
    {
      "inputs": [
        {
          "internalType": "bytes32",
          "name": "role",
          "type": "bytes32"
        },
        {
          "internalType": "uint256",
          "name": "index",
          "type": "uint256"
        }
      ],
      "name": "getRoleMember",
      "outputs": [
        {
          "internalType": "address",
          "name": "",
          "type": "address"
        }
      ],
      "stateMutability": "view",
      "type": "function"
    },
    {
      "inputs": [
        {
          "internalType": "bytes32",
          "name": "role",
          "type": "bytes32"
        }
      ],
      "name": "getRoleMemberCount",
      "outputs": [
        {
          "internalType": "uint256",
          "name": "",
          "type": "uint256"
        }
      ],
      "stateMutability": "view",
      "type": "function"
    },
    {
      "inputs": [
        {
          "internalType": "bytes32",
          "name": "role",
          "type": "bytes32"
        },
        {
          "internalType": "address",
          "name": "account",
          "type": "address"
        }
      ],
      "name": "grantRole",
      "outputs": [],
      "stateMutability": "nonpayable",
      "type": "function"
    },
    {
      "inputs": [
        {
          "internalType": "bytes32",
          "name": "role",
          "type": "bytes32"
        },
        {
          "internalType": "address",
          "name": "account",
          "type": "address"
        }
      ],
      "name": "hasRole",
      "outputs": [
        {
          "internalType": "bool",
          "name": "",
          "type": "bool"
        }
      ],
      "stateMutability": "view",
      "type": "function"
    },
    {
      "inputs": [
        {
          "internalType": "address",
          "name": "spender",
          "type": "address"
        },
        {
          "internalType": "uint256",
          "name": "addedValue",
          "type": "uint256"
        }
      ],
      "name": "increaseAllowance",
      "outputs": [
        {
          "internalType": "bool",
          "name": "",
          "type": "bool"
        }
      ],
      "stateMutability": "nonpayable",
      "type": "function"
    },
    {
      "inputs": [
        {
          "internalType": "address",
          "name": "_to",
          "type": "address"
        },
        {
          "internalType": "uint256",
          "name": "_amount",
          "type": "uint256"
        }
      ],
      "name": "mint",
      "outputs": [],
      "stateMutability": "nonpayable",
      "type": "function"
    },
    {
      "inputs": [],
      "name": "name",
      "outputs": [
        {
          "internalType": "string",
          "name": "",
          "type": "string"
        }
      ],
      "stateMutability": "view",
      "type": "function"
    },
    {
      "inputs": [
        {
          "internalType": "address",
          "name": "",
          "type": "address"
        }
      ],
      "name": "nonces",
      "outputs": [
        {
          "internalType": "uint256",
          "name": "",
          "type": "uint256"
        }
      ],
      "stateMutability": "view",
      "type": "function"
    },
    {
      "inputs": [
        {
          "internalType": "address",
          "name": "",
          "type": "address"
        }
      ],
      "name": "numCheckpoints",
      "outputs": [
        {
          "internalType": "uint32",
          "name": "",
          "type": "uint32"
        }
      ],
      "stateMutability": "view",
      "type": "function"
    },
    {
      "inputs": [],
      "name": "owner",
      "outputs": [
        {
          "internalType": "address",
          "name": "",
          "type": "address"
        }
      ],
      "stateMutability": "view",
      "type": "function"
    },
    {
      "inputs": [],
      "name": "renounceOwnership",
      "outputs": [],
      "stateMutability": "nonpayable",
      "type": "function"
    },
    {
      "inputs": [
        {
          "internalType": "bytes32",
          "name": "role",
          "type": "bytes32"
        },
        {
          "internalType": "address",
          "name": "account",
          "type": "address"
        }
      ],
      "name": "renounceRole",
      "outputs": [],
      "stateMutability": "nonpayable",
      "type": "function"
    },
    {
      "inputs": [
        {
          "internalType": "bytes32",
          "name": "role",
          "type": "bytes32"
        },
        {
          "internalType": "address",
          "name": "account",
          "type": "address"
        }
      ],
      "name": "revokeRole",
      "outputs": [],
      "stateMutability": "nonpayable",
      "type": "function"
    },
    {
      "inputs": [],
      "name": "symbol",
      "outputs": [
        {
          "internalType": "string",
          "name": "",
          "type": "string"
        }
      ],
      "stateMutability": "view",
      "type": "function"
    },
    {
      "inputs": [],
      "name": "totalSupply",
      "outputs": [
        {
          "internalType": "uint256",
          "name": "",
          "type": "uint256"
        }
      ],
      "stateMutability": "view",
      "type": "function"
    },
    {
      "inputs": [
        {
          "internalType": "address",
          "name": "recipient",
          "type": "address"
        },
        {
          "internalType": "uint256",
          "name": "amount",
          "type": "uint256"
        }
      ],
      "name": "transfer",
      "outputs": [
        {
          "internalType": "bool",
          "name": "",
          "type": "bool"
        }
      ],
      "stateMutability": "nonpayable",
      "type": "function"
    },
    {
      "inputs": [
        {
          "internalType": "address",
          "name": "sender",
          "type": "address"
        },
        {
          "internalType": "address",
          "name": "recipient",
          "type": "address"
        },
        {
          "internalType": "uint256",
          "name": "amount",
          "type": "uint256"
        }
      ],
      "name": "transferFrom",
      "outputs": [
        {
          "internalType": "bool",
          "name": "",
          "type": "bool"
        }
      ],
      "stateMutability": "nonpayable",
      "type": "function"
    },
    {
      "inputs": [
        {
          "internalType": "address",
          "name": "newOwner",
          "type": "address"
        }
      ],
      "name": "transferOwnership",
      "outputs": [],
      "stateMutability": "nonpayable",
      "type": "function"
    }
  ],
  "bytecode": "0x60806040523480156200001157600080fd5b506040518060400160405280600581526020016429bbb0b83d60d91b8152506040518060400160405280600381526020016229abad60e91b81525081600390805190602001906200006492919062000215565b5080516200007a90600490602084019062000215565b50506005805460ff1916601217905550600062000096620000ff565b60058054610100600160a81b0319166101006001600160a01b03841690810291909117909155604051919250906000907f8be0079c531659141344cd1fd0a4f28419497f9722a3daafe3b4186f6b6457e0908290a350620000f960003362000103565b620002b1565b3390565b6200010f828262000113565b5050565b60008281526006602090815260409091206200013a918390620014d96200018e821b17901c565b156200010f576200014a620000ff565b6001600160a01b0316816001600160a01b0316837f2f8788117e7eff1d82e926ec794901d17c78024a50270940304540a733656f0d60405160405180910390a45050565b6000620001a5836001600160a01b038416620001ae565b90505b92915050565b6000620001bc8383620001fd565b620001f457508154600181810184556000848152602080822090930184905584548482528286019093526040902091909155620001a8565b506000620001a8565b60009081526001919091016020526040902054151590565b828054600181600116156101000203166002900490600052602060002090601f016020900481019282601f106200025857805160ff191683800117855562000288565b8280016001018555821562000288579182015b82811115620002885782518255916020019190600101906200026b565b50620002969291506200029a565b5090565b5b808211156200029657600081556001016200029b565b6123fe80620002c16000396000f3fe608060405234801561001057600080fd5b506004361061021c5760003560e01c806379cc679011610125578063b4b5ea57116100ad578063d547741f1161007c578063d547741f146106e4578063dd62ed3e14610710578063e7a324dc1461073e578063f1127ed814610746578063f2fde38b146107985761021c565b8063b4b5ea5714610652578063c3cda52014610678578063ca15c873146106bf578063d5391393146106dc5761021c565b806391d14854116100f457806391d14854146105be57806395d89b41146105ea578063a217fddf146105f2578063a457c2d7146105fa578063a9059cbb146106265761021c565b806379cc6790146105415780637ecebe001461056d5780638da5cb5b146105935780639010d07c1461059b5761021c565b806339509351116101a85780635c19a95c116101775780635c19a95c146104825780636fcfff45146104a857806370a08231146104e7578063715018a61461050d578063782d6fe1146105155761021c565b806339509351146103cb57806340c10f19146103f757806342966c6814610423578063587cde1e146104405761021c565b806323b872dd116101ef57806323b872dd14610300578063248a9ca3146103365780632f2ff15d14610353578063313ce5671461038157806336568abe1461039f5761021c565b806306fdde0314610221578063095ea7b31461029e57806318160ddd146102de57806320606b70146102f8575b600080fd5b6102296107be565b6040805160208082528351818301528351919283929083019185019080838360005b8381101561026357818101518382015260200161024b565b50505050905090810190601f1680156102905780820380516001836020036101000a031916815260200191505b509250505060405180910390f35b6102ca600480360360408110156102b457600080fd5b506001600160a01b038135169060200135610854565b604080519115158252519081900360200190f35b6102e6610872565b60408051918252519081900360200190f35b6102e6610878565b6102ca6004803603606081101561031657600080fd5b506001600160a01b0381358116916020810135909116906040013561089c565b6102e66004803603602081101561034c57600080fd5b5035610923565b61037f6004803603604081101561036957600080fd5b50803590602001356001600160a01b0316610938565b005b6103896109a4565b6040805160ff9092168252519081900360200190f35b61037f600480360360408110156103b557600080fd5b50803590602001356001600160a01b03166109ad565b6102ca600480360360408110156103e157600080fd5b506001600160a01b038135169060200135610a0e565b61037f6004803603604081101561040d57600080fd5b506001600160a01b038135169060200135610a5c565b61037f6004803603602081101561043957600080fd5b5035610aff565b6104666004803603602081101561045657600080fd5b50356001600160a01b0316610b13565b604080516001600160a01b039092168252519081900360200190f35b61037f6004803603602081101561049857600080fd5b50356001600160a01b0316610b31565b6104ce600480360360208110156104be57600080fd5b50356001600160a01b0316610b3b565b6040805163ffffffff9092168252519081900360200190f35b6102e6600480360360208110156104fd57600080fd5b50356001600160a01b0316610b53565b61037f610b6e565b6102e66004803603604081101561052b57600080fd5b506001600160a01b038135169060200135610c32565b61037f6004803603604081101561055757600080fd5b506001600160a01b038135169060200135610e3a565b6102e66004803603602081101561058357600080fd5b50356001600160a01b0316610e94565b610466610ea6565b610466600480360360408110156105b157600080fd5b5080359060200135610eba565b6102ca600480360360408110156105d457600080fd5b50803590602001356001600160a01b0316610ed9565b610229610ef1565b6102e6610f52565b6102ca6004803603604081101561061057600080fd5b506001600160a01b038135169060200135610f57565b6102ca6004803603604081101561063c57600080fd5b506001600160a01b038135169060200135610fbf565b6102e66004803603602081101561066857600080fd5b50356001600160a01b0316610fd3565b61037f600480360360c081101561068e57600080fd5b506001600160a01b038135169060208101359060408101359060ff6060820135169060808101359060a00135611036565b6102e6600480360360208110156106d557600080fd5b50356112a9565b6102e66112c0565b61037f600480360360408110156106fa57600080fd5b50803590602001356001600160a01b03166112e4565b6102e66004803603604081101561072657600080fd5b506001600160a01b038135811691602001351661133d565b6102e6611368565b6107786004803603604081101561075c57600080fd5b5080356001600160a01b0316906020013563ffffffff1661138c565b6040805163ffffffff909316835260208301919091528051918290030190f35b61037f600480360360208110156107ae57600080fd5b50356001600160a01b03166113b9565b60038054604080516020601f600260001961010060018816150201909516949094049384018190048102820181019092528281526060939092909183018282801561084a5780601f1061081f5761010080835404028352916020019161084a565b820191906000526020600020905b81548152906001019060200180831161082d57829003601f168201915b5050505050905090565b60006108686108616114ee565b84846114f2565b5060015b92915050565b60025490565b7f8cad95687ba82c2ce50e74f7b754645e5117c3a5bec8151c0726d5857980a86681565b60006108a98484846115de565b610919846108b56114ee565b6109148560405180606001604052806028815260200161229a602891396001600160a01b038a166000908152600160205260408120906108f36114ee565b6001600160a01b031681526020810191909152604001600020549190611739565b6114f2565b5060019392505050565b60009081526006602052604090206002015490565b60008281526006602052604090206002015461095b906109566114ee565b610ed9565b6109965760405162461bcd60e51b815260040180806020018281038252602f81526020018061210c602f913960400191505060405180910390fd5b6109a082826117d0565b5050565b60055460ff1690565b6109b56114ee565b6001600160a01b0316816001600160a01b031614610a045760405162461bcd60e51b815260040180806020018281038252602f81526020018061239a602f913960400191505060405180910390fd5b6109a08282611839565b6000610868610a1b6114ee565b846109148560016000610a2c6114ee565b6001600160a01b03908116825260208083019390935260409182016000908120918c1681529252902054906118a2565b610a867f9f2df0fed2c77648de5860a4cc508cd0818c85b8b8a1ab4ceeef8d981c8956a633610ed9565b610ad0576040805162461bcd60e51b815260206004820152601660248201527521b0b63632b91034b9903737ba10309036b4b73a32b960511b604482015290519081900360640190fd5b610ada82826118fc565b6001600160a01b038083166000908152600760205260408120546109a09216836119ec565b610b10610b0a6114ee565b82611b29565b50565b6001600160a01b039081166000908152600760205260409020541690565b610b103382611c25565b60096020526000908152604090205463ffffffff1681565b6001600160a01b031660009081526020819052604090205490565b610b766114ee565b6001600160a01b0316610b87610ea6565b6001600160a01b031614610be2576040805162461bcd60e51b815260206004820181905260248201527f4f776e61626c653a2063616c6c6572206973206e6f7420746865206f776e6572604482015290519081900360640190fd5b60055460405160009161010090046001600160a01b0316907f8be0079c531659141344cd1fd0a4f28419497f9722a3daafe3b4186f6b6457e0908390a360058054610100600160a81b0319169055565b6000438210610c725760405162461bcd60e51b815260040180806020018281038252602681526020018061213b6026913960400191505060405180910390fd5b6001600160a01b03831660009081526009602052604090205463ffffffff1680610ca057600091505061086c565b6001600160a01b038416600090815260086020908152604080832063ffffffff600019860181168552925290912054168310610d0f576001600160a01b03841660009081526008602090815260408083206000199490940163ffffffff1683529290522060010154905061086c565b6001600160a01b038416600090815260086020908152604080832083805290915290205463ffffffff16831015610d4a57600091505061086c565b600060001982015b8163ffffffff168163ffffffff161115610e0357600282820363ffffffff16048103610d7c6120af565b506001600160a01b038716600090815260086020908152604080832063ffffffff808616855290835292819020815180830190925280549093168082526001909301549181019190915290871415610dde5760200151945061086c9350505050565b805163ffffffff16871115610df557819350610dfc565b6001820392505b5050610d52565b506001600160a01b038516600090815260086020908152604080832063ffffffff9094168352929052206001015491505092915050565b6000610e71826040518060600160405280602481526020016122c260249139610e6a86610e656114ee565b61133d565b9190611739565b9050610e8583610e7f6114ee565b836114f2565b610e8f8383611b29565b505050565b600a6020526000908152604090205481565b60055461010090046001600160a01b031690565b6000828152600660205260408120610ed29083611cba565b9392505050565b6000828152600660205260408120610ed29083611cc6565b60048054604080516020601f600260001961010060018816150201909516949094049384018190048102820181019092528281526060939092909183018282801561084a5780601f1061081f5761010080835404028352916020019161084a565b600081565b6000610868610f646114ee565b84610914856040518060600160405280602581526020016123756025913960016000610f8e6114ee565b6001600160a01b03908116825260208083019390935260409182016000908120918d16815292529020549190611739565b6000610868610fcc6114ee565b84846115de565b6001600160a01b03811660009081526009602052604081205463ffffffff1680610ffe576000610ed2565b6001600160a01b038316600090815260086020908152604080832063ffffffff60001986011684529091529020600101549392505050565b60007f8cad95687ba82c2ce50e74f7b754645e5117c3a5bec8151c0726d5857980a8666110616107be565b80519060200120611070611cdb565b60408051602080820195909552808201939093526060830191909152306080808401919091528151808403909101815260a0830182528051908401207fe48329057bfd03d55e49b547132e39cffd9c1820ad7b9d4c5307691425d15adf60c08401526001600160a01b038b1660e084015261010083018a90526101208084018a9052825180850390910181526101408401835280519085012061190160f01b6101608501526101628401829052610182808501829052835180860390910181526101a285018085528151918701919091206000918290526101c2860180865281905260ff8b166101e287015261020286018a90526102228601899052935192965090949293909260019261024280840193601f198301929081900390910190855afa1580156111a3573d6000803e3d6000fd5b5050604051601f1901519150506001600160a01b0381166111f55760405162461bcd60e51b81526004018080602001828103825260258152602001806122e66025913960400191505060405180910390fd5b6001600160a01b0381166000908152600a6020526040902080546001810190915589146112535760405162461bcd60e51b81526004018080602001828103825260218152602001806122246021913960400191505060405180910390fd5b874211156112925760405162461bcd60e51b81526004018080602001828103825260258152602001806122756025913960400191505060405180910390fd5b61129c818b611c25565b505050505b505050505050565b600081815260066020526040812061086c90611cdf565b7f9f2df0fed2c77648de5860a4cc508cd0818c85b8b8a1ab4ceeef8d981c8956a681565b600082815260066020526040902060020154611302906109566114ee565b610a045760405162461bcd60e51b81526004018080602001828103825260308152602001806122456030913960400191505060405180910390fd5b6001600160a01b03918216600090815260016020908152604080832093909416825291909152205490565b7fe48329057bfd03d55e49b547132e39cffd9c1820ad7b9d4c5307691425d15adf81565b60086020908152600092835260408084209091529082529020805460019091015463ffffffff9091169082565b6113c16114ee565b6001600160a01b03166113d2610ea6565b6001600160a01b03161461142d576040805162461bcd60e51b815260206004820181905260248201527f4f776e61626c653a2063616c6c6572206973206e6f7420746865206f776e6572604482015290519081900360640190fd5b6001600160a01b0381166114725760405162461bcd60e51b81526004018080602001828103825260268152602001806121b66026913960400191505060405180910390fd5b6005546040516001600160a01b0380841692610100900416907f8be0079c531659141344cd1fd0a4f28419497f9722a3daafe3b4186f6b6457e090600090a3600580546001600160a01b0390921661010002610100600160a81b0319909216919091179055565b6000610ed2836001600160a01b038416611cea565b3390565b6001600160a01b0383166115375760405162461bcd60e51b81526004018080602001828103825260248152602001806123516024913960400191505060405180910390fd5b6001600160a01b03821661157c5760405162461bcd60e51b81526004018080602001828103825260228152602001806121dc6022913960400191505060405180910390fd5b6001600160a01b03808416600081815260016020908152604080832094871680845294825291829020859055815185815291517f8c5be1e5ebec7d5bd14f71427d1e84f3dd0314c0f7b2291e5b200ac8c7c3b9259281900390910190a3505050565b6001600160a01b0383166116235760405162461bcd60e51b815260040180806020018281038252602581526020018061232c6025913960400191505060405180910390fd5b6001600160a01b0382166116685760405162461bcd60e51b81526004018080602001828103825260238152602001806120e96023913960400191505060405180910390fd5b611673838383610e8f565b6116b0816040518060600160405280602681526020016121fe602691396001600160a01b0386166000908152602081905260409020549190611739565b6001600160a01b0380851660009081526020819052604080822093909355908416815220546116df90826118a2565b6001600160a01b038084166000818152602081815260409182902094909455805185815290519193928716927fddf252ad1be2c89b69c2b068fc378daa952ba7f163c4a11628f55a4df523b3ef92918290030190a3505050565b600081848411156117c85760405162461bcd60e51b81526004018080602001828103825283818151815260200191508051906020019080838360005b8381101561178d578181015183820152602001611775565b50505050905090810190601f1680156117ba5780820380516001836020036101000a031916815260200191505b509250505060405180910390fd5b505050900390565b60008281526006602052604090206117e890826114d9565b156109a0576117f56114ee565b6001600160a01b0316816001600160a01b0316837f2f8788117e7eff1d82e926ec794901d17c78024a50270940304540a733656f0d60405160405180910390a45050565b60008281526006602052604090206118519082611d34565b156109a05761185e6114ee565b6001600160a01b0316816001600160a01b0316837ff6391f5c32d9c69d2a47ea670b442974b53935d1edc7fd64eb21e047a839171b60405160405180910390a45050565b600082820183811015610ed2576040805162461bcd60e51b815260206004820152601b60248201527f536166654d6174683a206164646974696f6e206f766572666c6f770000000000604482015290519081900360640190fd5b6001600160a01b038216611957576040805162461bcd60e51b815260206004820152601f60248201527f45524332303a206d696e7420746f20746865207a65726f206164647265737300604482015290519081900360640190fd5b61196360008383610e8f565b60025461197090826118a2565b6002556001600160a01b03821660009081526020819052604090205461199690826118a2565b6001600160a01b0383166000818152602081815260408083209490945583518581529351929391927fddf252ad1be2c89b69c2b068fc378daa952ba7f163c4a11628f55a4df523b3ef9281900390910190a35050565b816001600160a01b0316836001600160a01b031614158015611a0e5750600081115b15610e8f576001600160a01b03831615611aa0576001600160a01b03831660009081526009602052604081205463ffffffff169081611a4e576000611a80565b6001600160a01b038516600090815260086020908152604080832063ffffffff60001987011684529091529020600101545b90506000611a8e8285611d49565b9050611a9c86848484611da6565b5050505b6001600160a01b03821615610e8f576001600160a01b03821660009081526009602052604081205463ffffffff169081611adb576000611b0d565b6001600160a01b038416600090815260086020908152604080832063ffffffff60001987011684529091529020600101545b90506000611b1b82856118a2565b90506112a185848484611da6565b6001600160a01b038216611b6e5760405162461bcd60e51b815260040180806020018281038252602181526020018061230b6021913960400191505060405180910390fd5b611b7a82600083610e8f565b611bb781604051806060016040528060228152602001612161602291396001600160a01b0385166000908152602081905260409020549190611739565b6001600160a01b038316600090815260208190526040902055600254611bdd9082611d49565b6002556040805182815290516000916001600160a01b038516917fddf252ad1be2c89b69c2b068fc378daa952ba7f163c4a11628f55a4df523b3ef9181900360200190a35050565b6001600160a01b0380831660009081526007602052604081205490911690611c4c84610b53565b6001600160a01b0385811660008181526007602052604080822080546001600160a01b031916898616908117909155905194955093928616927f3134e8a2e6d97e929a7e54011ea5485d7d196dd5f0ba4d4ef95803e8e3fc257f9190a4611cb48284836119ec565b50505050565b6000610ed28383611f0b565b6000610ed2836001600160a01b038416611f6f565b4690565b600061086c82611f87565b6000611cf68383611f6f565b611d2c5750815460018181018455600084815260208082209093018490558454848252828601909352604090209190915561086c565b50600061086c565b6000610ed2836001600160a01b038416611f8b565b600082821115611da0576040805162461bcd60e51b815260206004820152601e60248201527f536166654d6174683a207375627472616374696f6e206f766572666c6f770000604482015290519081900360640190fd5b50900390565b6000611dca4360405180606001604052806033815260200161218360339139612051565b905060008463ffffffff16118015611e1357506001600160a01b038516600090815260086020908152604080832063ffffffff6000198901811685529252909120548282169116145b15611e50576001600160a01b038516600090815260086020908152604080832063ffffffff60001989011684529091529020600101829055611ec1565b60408051808201825263ffffffff808416825260208083018681526001600160a01b038a166000818152600884528681208b8616825284528681209551865490861663ffffffff19918216178755925160019687015590815260099092529390208054928801909116919092161790555b604080518481526020810184905281516001600160a01b038816927fdec2bacdd2f05b59de34da9b523dff8be42e5e38e818c82fdb0bae774387a724928290030190a25050505050565b81546000908210611f4d5760405162461bcd60e51b81526004018080602001828103825260228152602001806120c76022913960400191505060405180910390fd5b826000018281548110611f5c57fe5b9060005260206000200154905092915050565b60009081526001919091016020526040902054151590565b5490565b600081815260018301602052604081205480156120475783546000198083019190810190600090879083908110611fbe57fe5b9060005260206000200154905080876000018481548110611fdb57fe5b60009182526020808320909101929092558281526001898101909252604090209084019055865487908061200b57fe5b6001900381819060005260206000200160009055905586600101600087815260200190815260200160002060009055600194505050505061086c565b600091505061086c565b60008164010000000084106120a75760405162461bcd60e51b815260206004820181815283516024840152835190928392604490910191908501908083836000831561178d578181015183820152602001611775565b509192915050565b60408051808201909152600080825260208201529056fe456e756d657261626c655365743a20696e646578206f7574206f6620626f756e647345524332303a207472616e7366657220746f20746865207a65726f2061646472657373416363657373436f6e74726f6c3a2073656e646572206d75737420626520616e2061646d696e20746f206772616e744e52563a3a6765745072696f72566f7465733a206e6f74207965742064657465726d696e656445524332303a206275726e20616d6f756e7420657863656564732062616c616e63654e52563a3a5f7772697465436865636b706f696e743a20626c6f636b206e756d626572206578636565647320333220626974734f776e61626c653a206e6577206f776e657220697320746865207a65726f206164647265737345524332303a20617070726f766520746f20746865207a65726f206164647265737345524332303a207472616e7366657220616d6f756e7420657863656564732062616c616e63654e52563a3a64656c656761746542795369673a20696e76616c6964206e6f6e6365416363657373436f6e74726f6c3a2073656e646572206d75737420626520616e2061646d696e20746f207265766f6b654e52563a3a64656c656761746542795369673a207369676e6174757265206578706972656445524332303a207472616e7366657220616d6f756e74206578636565647320616c6c6f77616e636545524332303a206275726e20616d6f756e74206578636565647320616c6c6f77616e63654e52563a3a64656c656761746542795369673a20696e76616c6964207369676e617475726545524332303a206275726e2066726f6d20746865207a65726f206164647265737345524332303a207472616e736665722066726f6d20746865207a65726f206164647265737345524332303a20617070726f76652066726f6d20746865207a65726f206164647265737345524332303a2064656372656173656420616c6c6f77616e63652062656c6f77207a65726f416363657373436f6e74726f6c3a2063616e206f6e6c792072656e6f756e636520726f6c657320666f722073656c66a264697066735822122064a6eb6dc733bfdd714a62a619c735ea32d141e8702aabe1c9f42b7215554b5c64736f6c634300060c0033",
  "linkReferences": {},
  "deployedLinkReferences": {}
}